{
	"Escrow.sol": {
		"Escrow": {
			"abi": [
				{
					"inputs": [
						{
							"internalType": "uint256",
							"name": "",
							"type": "uint256"
						}
					],
					"name": "agreements",
					"outputs": [
						{
							"internalType": "address",
							"name": "player1",
							"type": "address"
						},
						{
							"internalType": "address",
							"name": "player2",
							"type": "address"
						},
						{
							"internalType": "address",
							"name": "controller",
							"type": "address"
						},
						{
							"internalType": "uint256",
							"name": "amount",
							"type": "uint256"
						},
						{
							"internalType": "bool",
							"name": "player1Paid",
							"type": "bool"
						},
						{
							"internalType": "bool",
							"name": "player2Paid",
							"type": "bool"
						}
					],
					"stateMutability": "view",
					"type": "function"
				},
				{
					"inputs": [
						{
							"internalType": "uint256",
							"name": "_id",
							"type": "uint256"
						},
						{
							"internalType": "address payable",
							"name": "winner",
							"type": "address"
						}
					],
					"name": "complete",
					"outputs": [],
					"stateMutability": "payable",
					"type": "function"
				},
				{
					"inputs": [
						{
							"internalType": "uint256",
							"name": "_id",
							"type": "uint256"
						}
					],
					"name": "deposit",
					"outputs": [],
					"stateMutability": "payable",
					"type": "function"
				},
				{
					"inputs": [
						{
							"internalType": "address",
							"name": "_player1",
							"type": "address"
						},
						{
							"internalType": "address",
							"name": "_player2",
							"type": "address"
						},
						{
							"internalType": "uint256",
							"name": "_amount",
							"type": "uint256"
						}
					],
					"name": "new_agreement",
					"outputs": [
						{
							"internalType": "uint256",
							"name": "",
							"type": "uint256"
						}
					],
					"stateMutability": "nonpayable",
					"type": "function"
				},
				{
					"inputs": [
						{
							"internalType": "uint256",
							"name": "_id",
							"type": "uint256"
						}
					],
					"name": "refund",
					"outputs": [],
					"stateMutability": "payable",
					"type": "function"
				}
			],
			"devdoc": {
				"kind": "dev",
				"methods": {},
				"version": 1
			},
			"evm": {
				"assembly": "    /* \"Escrow.sol\":60:2556  contract Escrow{... */\n  mstore(0x40, 0x80)\n  callvalue\n  dup1\n  iszero\n  tag_1\n  jumpi\n  0x00\n  dup1\n  revert\ntag_1:\n  pop\n  dataSize(sub_0)\n  dup1\n  dataOffset(sub_0)\n  0x00\n  codecopy\n  0x00\n  return\nstop\n\nsub_0: assembly {\n        /* \"Escrow.sol\":60:2556  contract Escrow{... */\n      mstore(0x40, 0x80)\n      jumpi(tag_1, lt(calldatasize, 0x04))\n      shr(0xe0, calldataload(0x00))\n      dup1\n      0x13c7f466\n      eq\n      tag_2\n      jumpi\n      dup1\n      0x278ecde1\n      eq\n      tag_3\n      jumpi\n      dup1\n      0x768038c3\n      eq\n      tag_4\n      jumpi\n      dup1\n      0xb6b55f25\n      eq\n      tag_5\n      jumpi\n      dup1\n      0xbd14de96\n      eq\n      tag_6\n      jumpi\n    tag_1:\n      0x00\n      dup1\n      revert\n        /* \"Escrow.sol\":680:912  function new_agreement (address _player1, address _player2, uint _amount) public returns(uint) {... */\n    tag_2:\n      callvalue\n      dup1\n      iszero\n      tag_7\n      jumpi\n      0x00\n      dup1\n      revert\n    tag_7:\n      pop\n      tag_8\n      0x04\n      dup1\n      calldatasize\n      sub\n      dup2\n      add\n      swap1\n      tag_9\n      swap2\n      swap1\n      tag_10\n      jump\t// in\n    tag_9:\n      tag_11\n      jump\t// in\n    tag_8:\n      mload(0x40)\n      tag_12\n      swap2\n      swap1\n      tag_13\n      jump\t// in\n    tag_12:\n      mload(0x40)\n      dup1\n      swap2\n      sub\n      swap1\n      return\n        /* \"Escrow.sol\":1404:2007  function refund (uint _id) public payable onlyPlayers(_id) {... */\n    tag_3:\n      tag_14\n      0x04\n      dup1\n      calldatasize\n      sub\n      dup2\n      add\n      swap1\n      tag_15\n      swap2\n      swap1\n      tag_16\n      jump\t// in\n    tag_15:\n      tag_17\n      jump\t// in\n    tag_14:\n      stop\n        /* \"Escrow.sol\":2015:2553  function complete (uint _id, address payable winner) public payable onlyController(_id) {... */\n    tag_4:\n      tag_18\n      0x04\n      dup1\n      calldatasize\n      sub\n      dup2\n      add\n      swap1\n      tag_19\n      swap2\n      swap1\n      tag_20\n      jump\t// in\n    tag_19:\n      tag_21\n      jump\t// in\n    tag_18:\n      stop\n        /* \"Escrow.sol\":920:1396  function deposit (uint _id) public payable onlyPlayers(_id) {... */\n    tag_5:\n      tag_22\n      0x04\n      dup1\n      calldatasize\n      sub\n      dup2\n      add\n      swap1\n      tag_23\n      swap2\n      swap1\n      tag_16\n      jump\t// in\n    tag_23:\n      tag_24\n      jump\t// in\n    tag_22:\n      stop\n        /* \"Escrow.sol\":271:300  Agreement[] public agreements */\n    tag_6:\n      callvalue\n      dup1\n      iszero\n      tag_25\n      jumpi\n      0x00\n      dup1\n      revert\n    tag_25:\n      pop\n      tag_26\n      0x04\n      dup1\n      calldatasize\n      sub\n      dup2\n      add\n      swap1\n      tag_27\n      swap2\n      swap1\n      tag_16\n      jump\t// in\n    tag_27:\n      tag_28\n      jump\t// in\n    tag_26:\n      mload(0x40)\n      tag_29\n      swap7\n      swap6\n      swap5\n      swap4\n      swap3\n      swap2\n      swap1\n      tag_30\n      jump\t// in\n    tag_29:\n      mload(0x40)\n      dup1\n      swap2\n      sub\n      swap1\n      return\n        /* \"Escrow.sol\":680:912  function new_agreement (address _player1, address _player2, uint _amount) public returns(uint) {... */\n    tag_11:\n        /* \"Escrow.sol\":769:773  uint */\n      0x00\n        /* \"Escrow.sol\":786:796  agreements */\n      dup1\n        /* \"Escrow.sol\":802:866  Agreement(_player1, _player2, msg.sender, _amount, false, false) */\n      mload(0x40)\n      dup1\n      0xc0\n      add\n      0x40\n      mstore\n      dup1\n        /* \"Escrow.sol\":812:820  _player1 */\n      dup7\n        /* \"Escrow.sol\":802:866  Agreement(_player1, _player2, msg.sender, _amount, false, false) */\n      0xffffffffffffffffffffffffffffffffffffffff\n      and\n      dup2\n      mstore\n      0x20\n      add\n        /* \"Escrow.sol\":822:830  _player2 */\n      dup6\n        /* \"Escrow.sol\":802:866  Agreement(_player1, _player2, msg.sender, _amount, false, false) */\n      0xffffffffffffffffffffffffffffffffffffffff\n      and\n      dup2\n      mstore\n      0x20\n      add\n        /* \"Escrow.sol\":832:842  msg.sender */\n      caller\n        /* \"Escrow.sol\":802:866  Agreement(_player1, _player2, msg.sender, _amount, false, false) */\n      0xffffffffffffffffffffffffffffffffffffffff\n      and\n      dup2\n      mstore\n      0x20\n      add\n        /* \"Escrow.sol\":844:851  _amount */\n      dup5\n        /* \"Escrow.sol\":802:866  Agreement(_player1, _player2, msg.sender, _amount, false, false) */\n      dup2\n      mstore\n      0x20\n      add\n        /* \"Escrow.sol\":853:858  false */\n      0x00\n        /* \"Escrow.sol\":802:866  Agreement(_player1, _player2, msg.sender, _amount, false, false) */\n      iszero\n      iszero\n      dup2\n      mstore\n      0x20\n      add\n        /* \"Escrow.sol\":860:865  false */\n      0x00\n        /* \"Escrow.sol\":802:866  Agreement(_player1, _player2, msg.sender, _amount, false, false) */\n      iszero\n      iszero\n      dup2\n      mstore\n      pop\n        /* \"Escrow.sol\":786:867  agreements.push(Agreement(_player1, _player2, msg.sender, _amount, false, false)) */\n      swap1\n      dup1\n      0x01\n      dup2\n      sload\n      add\n      dup1\n      dup3\n      sstore\n      dup1\n      swap2\n      pop\n      pop\n      0x01\n      swap1\n      sub\n      swap1\n      0x00\n      mstore\n      keccak256(0x00, 0x20)\n      swap1\n      0x05\n      mul\n      add\n      0x00\n      swap1\n      swap2\n      swap1\n      swap2\n      swap1\n      swap2\n      pop\n      0x00\n      dup3\n      add\n      mload\n      dup2\n      0x00\n      add\n      exp(0x0100, 0x00)\n      dup2\n      sload\n      dup2\n      0xffffffffffffffffffffffffffffffffffffffff\n      mul\n      not\n      and\n      swap1\n      dup4\n      0xffffffffffffffffffffffffffffffffffffffff\n      and\n      mul\n      or\n      swap1\n      sstore\n      pop\n      0x20\n      dup3\n      add\n      mload\n      dup2\n      0x01\n      add\n      exp(0x0100, 0x00)\n      dup2\n      sload\n      dup2\n      0xffffffffffffffffffffffffffffffffffffffff\n      mul\n      not\n      and\n      swap1\n      dup4\n      0xffffffffffffffffffffffffffffffffffffffff\n      and\n      mul\n      or\n      swap1\n      sstore\n      pop\n      0x40\n      dup3\n      add\n      mload\n      dup2\n      0x02\n      add\n      exp(0x0100, 0x00)\n      dup2\n      sload\n      dup2\n      0xffffffffffffffffffffffffffffffffffffffff\n      mul\n      not\n      and\n      swap1\n      dup4\n      0xffffffffffffffffffffffffffffffffffffffff\n      and\n      mul\n      or\n      swap1\n      sstore\n      pop\n      0x60\n      dup3\n      add\n      mload\n      dup2\n      0x03\n      add\n      sstore\n      0x80\n      dup3\n      add\n      mload\n      dup2\n      0x04\n      add\n      exp(0x0100, 0x00)\n      dup2\n      sload\n      dup2\n      0xff\n      mul\n      not\n      and\n      swap1\n      dup4\n      iszero\n      iszero\n      mul\n      or\n      swap1\n      sstore\n      pop\n      0xa0\n      dup3\n      add\n      mload\n      dup2\n      0x04\n      add\n      exp(0x0100, 0x01)\n      dup2\n      sload\n      dup2\n      0xff\n      mul\n      not\n      and\n      swap1\n      dup4\n      iszero\n      iszero\n      mul\n      or\n      swap1\n      sstore\n      pop\n      pop\n      pop\n        /* \"Escrow.sol\":903:904  1 */\n      0x01\n        /* \"Escrow.sol\":885:895  agreements */\n      0x00\n        /* \"Escrow.sol\":885:902  agreements.length */\n      dup1\n      sload\n      swap1\n      pop\n        /* \"Escrow.sol\":885:904  agreements.length-1 */\n      tag_33\n      swap2\n      swap1\n      tag_34\n      jump\t// in\n    tag_33:\n        /* \"Escrow.sol\":878:904  return agreements.length-1 */\n      swap1\n      pop\n        /* \"Escrow.sol\":680:912  function new_agreement (address _player1, address _player2, uint _amount) public returns(uint) {... */\n      swap4\n      swap3\n      pop\n      pop\n      pop\n      jump\t// out\n        /* \"Escrow.sol\":1404:2007  function refund (uint _id) public payable onlyPlayers(_id) {... */\n    tag_17:\n        /* \"Escrow.sol\":1458:1461  _id */\n      dup1\n        /* \"Escrow.sol\":374:384  agreements */\n      0x00\n        /* \"Escrow.sol\":385:388  _id */\n      dup2\n        /* \"Escrow.sol\":374:389  agreements[_id] */\n      dup2\n      sload\n      dup2\n      lt\n      tag_36\n      jumpi\n      tag_37\n      tag_38\n      jump\t// in\n    tag_37:\n    tag_36:\n      swap1\n      0x00\n      mstore\n      keccak256(0x00, 0x20)\n      swap1\n      0x05\n      mul\n      add\n        /* \"Escrow.sol\":374:397  agreements[_id].player1 */\n      0x00\n      add\n      0x00\n      swap1\n      sload\n      swap1\n      0x0100\n      exp\n      swap1\n      div\n      0xffffffffffffffffffffffffffffffffffffffff\n      and\n        /* \"Escrow.sol\":360:397  msg.sender == agreements[_id].player1 */\n      0xffffffffffffffffffffffffffffffffffffffff\n      and\n        /* \"Escrow.sol\":360:370  msg.sender */\n      caller\n        /* \"Escrow.sol\":360:397  msg.sender == agreements[_id].player1 */\n      0xffffffffffffffffffffffffffffffffffffffff\n      and\n      eq\n        /* \"Escrow.sol\":360:438  msg.sender == agreements[_id].player1 || msg.sender == agreements[_id].player2 */\n      dup1\n      tag_40\n      jumpi\n      pop\n        /* \"Escrow.sol\":415:425  agreements */\n      0x00\n        /* \"Escrow.sol\":426:429  _id */\n      dup2\n        /* \"Escrow.sol\":415:430  agreements[_id] */\n      dup2\n      sload\n      dup2\n      lt\n      tag_41\n      jumpi\n      tag_42\n      tag_38\n      jump\t// in\n    tag_42:\n    tag_41:\n      swap1\n      0x00\n      mstore\n      keccak256(0x00, 0x20)\n      swap1\n      0x05\n      mul\n      add\n        /* \"Escrow.sol\":415:438  agreements[_id].player2 */\n      0x01\n      add\n      0x00\n      swap1\n      sload\n      swap1\n      0x0100\n      exp\n      swap1\n      div\n      0xffffffffffffffffffffffffffffffffffffffff\n      and\n        /* \"Escrow.sol\":401:438  msg.sender == agreements[_id].player2 */\n      0xffffffffffffffffffffffffffffffffffffffff\n      and\n        /* \"Escrow.sol\":401:411  msg.sender */\n      caller\n        /* \"Escrow.sol\":401:438  msg.sender == agreements[_id].player2 */\n      0xffffffffffffffffffffffffffffffffffffffff\n      and\n      eq\n        /* \"Escrow.sol\":360:438  msg.sender == agreements[_id].player1 || msg.sender == agreements[_id].player2 */\n    tag_40:\n        /* \"Escrow.sol\":352:489  require(msg.sender == agreements[_id].player1 || msg.sender == agreements[_id].player2, \"The deposit is acceptable by only the players.\") */\n      tag_44\n      jumpi\n      mload(0x40)\n      0x08c379a000000000000000000000000000000000000000000000000000000000\n      dup2\n      mstore\n      0x04\n      add\n      tag_45\n      swap1\n      tag_46\n      jump\t// in\n    tag_45:\n      mload(0x40)\n      dup1\n      swap2\n      sub\n      swap1\n      revert\n    tag_44:\n        /* \"Escrow.sol\":1489:1499  agreements */\n      0x00\n        /* \"Escrow.sol\":1500:1503  _id */\n      dup3\n        /* \"Escrow.sol\":1489:1504  agreements[_id] */\n      dup2\n      sload\n      dup2\n      lt\n      tag_48\n      jumpi\n      tag_49\n      tag_38\n      jump\t// in\n    tag_49:\n    tag_48:\n      swap1\n      0x00\n      mstore\n      keccak256(0x00, 0x20)\n      swap1\n      0x05\n      mul\n      add\n        /* \"Escrow.sol\":1489:1512  agreements[_id].player1 */\n      0x00\n      add\n      0x00\n      swap1\n      sload\n      swap1\n      0x0100\n      exp\n      swap1\n      div\n      0xffffffffffffffffffffffffffffffffffffffff\n      and\n        /* \"Escrow.sol\":1477:1512  msg.sender==agreements[_id].player1 */\n      0xffffffffffffffffffffffffffffffffffffffff\n      and\n        /* \"Escrow.sol\":1477:1487  msg.sender */\n      caller\n        /* \"Escrow.sol\":1477:1512  msg.sender==agreements[_id].player1 */\n      0xffffffffffffffffffffffffffffffffffffffff\n      and\n      sub\n        /* \"Escrow.sol\":1474:1732  if(msg.sender==agreements[_id].player1){... */\n      tag_51\n      jumpi\n        /* \"Escrow.sol\":1536:1546  agreements */\n      0x00\n        /* \"Escrow.sol\":1547:1550  _id */\n      dup3\n        /* \"Escrow.sol\":1536:1551  agreements[_id] */\n      dup2\n      sload\n      dup2\n      lt\n      tag_52\n      jumpi\n      tag_53\n      tag_38\n      jump\t// in\n    tag_53:\n    tag_52:\n      swap1\n      0x00\n      mstore\n      keccak256(0x00, 0x20)\n      swap1\n      0x05\n      mul\n      add\n        /* \"Escrow.sol\":1536:1563  agreements[_id].player1Paid */\n      0x04\n      add\n      0x00\n      swap1\n      sload\n      swap1\n      0x0100\n      exp\n      swap1\n      div\n      0xff\n      and\n        /* \"Escrow.sol\":1528:1590  require(agreements[_id].player1Paid, \"You have not paid yet.\") */\n      tag_55\n      jumpi\n      mload(0x40)\n      0x08c379a000000000000000000000000000000000000000000000000000000000\n      dup2\n      mstore\n      0x04\n      add\n      tag_56\n      swap1\n      tag_57\n      jump\t// in\n    tag_56:\n      mload(0x40)\n      dup1\n      swap2\n      sub\n      swap1\n      revert\n    tag_55:\n        /* \"Escrow.sol\":1635:1640  false */\n      0x00\n        /* \"Escrow.sol\":1605:1615  agreements */\n      dup1\n        /* \"Escrow.sol\":1616:1619  _id */\n      dup4\n        /* \"Escrow.sol\":1605:1620  agreements[_id] */\n      dup2\n      sload\n      dup2\n      lt\n      tag_58\n      jumpi\n      tag_59\n      tag_38\n      jump\t// in\n    tag_59:\n    tag_58:\n      swap1\n      0x00\n      mstore\n      keccak256(0x00, 0x20)\n      swap1\n      0x05\n      mul\n      add\n        /* \"Escrow.sol\":1605:1632  agreements[_id].player1Paid */\n      0x04\n      add\n      0x00\n        /* \"Escrow.sol\":1605:1640  agreements[_id].player1Paid = false */\n      0x0100\n      exp\n      dup2\n      sload\n      dup2\n      0xff\n      mul\n      not\n      and\n      swap1\n      dup4\n      iszero\n      iszero\n      mul\n      or\n      swap1\n      sstore\n      pop\n        /* \"Escrow.sol\":1663:1673  agreements */\n      0x00\n        /* \"Escrow.sol\":1674:1677  _id */\n      dup3\n        /* \"Escrow.sol\":1663:1678  agreements[_id] */\n      dup2\n      sload\n      dup2\n      lt\n      tag_61\n      jumpi\n      tag_62\n      tag_38\n      jump\t// in\n    tag_62:\n    tag_61:\n      swap1\n      0x00\n      mstore\n      keccak256(0x00, 0x20)\n      swap1\n      0x05\n      mul\n      add\n        /* \"Escrow.sol\":1663:1686  agreements[_id].player1 */\n      0x00\n      add\n      0x00\n      swap1\n      sload\n      swap1\n      0x0100\n      exp\n      swap1\n      div\n      0xffffffffffffffffffffffffffffffffffffffff\n      and\n        /* \"Escrow.sol\":1655:1696  payable(agreements[_id].player1).transfer */\n      0xffffffffffffffffffffffffffffffffffffffff\n      and\n        /* \"Escrow.sol\":1655:1720  payable(agreements[_id].player1).transfer(agreements[_id].amount) */\n      0x08fc\n        /* \"Escrow.sol\":1697:1707  agreements */\n      0x00\n        /* \"Escrow.sol\":1708:1711  _id */\n      dup5\n        /* \"Escrow.sol\":1697:1712  agreements[_id] */\n      dup2\n      sload\n      dup2\n      lt\n      tag_64\n      jumpi\n      tag_65\n      tag_38\n      jump\t// in\n    tag_65:\n    tag_64:\n      swap1\n      0x00\n      mstore\n      keccak256(0x00, 0x20)\n      swap1\n      0x05\n      mul\n      add\n        /* \"Escrow.sol\":1697:1719  agreements[_id].amount */\n      0x03\n      add\n      sload\n        /* \"Escrow.sol\":1655:1720  payable(agreements[_id].player1).transfer(agreements[_id].amount) */\n      swap1\n      dup2\n      iszero\n      mul\n      swap1\n      mload(0x40)\n      0x00\n      mload(0x40)\n      dup1\n      dup4\n      sub\n      dup2\n      dup6\n      dup9\n      dup9\n      call\n      swap4\n      pop\n      pop\n      pop\n      pop\n      iszero\n      dup1\n      iszero\n      tag_68\n      jumpi\n      returndatasize\n      0x00\n      dup1\n      returndatacopy\n      revert(0x00, returndatasize)\n    tag_68:\n      pop\n        /* \"Escrow.sol\":1474:1732  if(msg.sender==agreements[_id].player1){... */\n    tag_51:\n        /* \"Escrow.sol\":1757:1767  agreements */\n      0x00\n        /* \"Escrow.sol\":1768:1771  _id */\n      dup3\n        /* \"Escrow.sol\":1757:1772  agreements[_id] */\n      dup2\n      sload\n      dup2\n      lt\n      tag_69\n      jumpi\n      tag_70\n      tag_38\n      jump\t// in\n    tag_70:\n    tag_69:\n      swap1\n      0x00\n      mstore\n      keccak256(0x00, 0x20)\n      swap1\n      0x05\n      mul\n      add\n        /* \"Escrow.sol\":1757:1780  agreements[_id].player2 */\n      0x01\n      add\n      0x00\n      swap1\n      sload\n      swap1\n      0x0100\n      exp\n      swap1\n      div\n      0xffffffffffffffffffffffffffffffffffffffff\n      and\n        /* \"Escrow.sol\":1745:1780  msg.sender==agreements[_id].player2 */\n      0xffffffffffffffffffffffffffffffffffffffff\n      and\n        /* \"Escrow.sol\":1745:1755  msg.sender */\n      caller\n        /* \"Escrow.sol\":1745:1780  msg.sender==agreements[_id].player2 */\n      0xffffffffffffffffffffffffffffffffffffffff\n      and\n      sub\n        /* \"Escrow.sol\":1742:2000  if(msg.sender==agreements[_id].player2){... */\n      tag_72\n      jumpi\n        /* \"Escrow.sol\":1804:1814  agreements */\n      0x00\n        /* \"Escrow.sol\":1815:1818  _id */\n      dup3\n        /* \"Escrow.sol\":1804:1819  agreements[_id] */\n      dup2\n      sload\n      dup2\n      lt\n      tag_73\n      jumpi\n      tag_74\n      tag_38\n      jump\t// in\n    tag_74:\n    tag_73:\n      swap1\n      0x00\n      mstore\n      keccak256(0x00, 0x20)\n      swap1\n      0x05\n      mul\n      add\n        /* \"Escrow.sol\":1804:1831  agreements[_id].player2Paid */\n      0x04\n      add\n      0x01\n      swap1\n      sload\n      swap1\n      0x0100\n      exp\n      swap1\n      div\n      0xff\n      and\n        /* \"Escrow.sol\":1796:1858  require(agreements[_id].player2Paid, \"You have not paid yet.\") */\n      tag_76\n      jumpi\n      mload(0x40)\n      0x08c379a000000000000000000000000000000000000000000000000000000000\n      dup2\n      mstore\n      0x04\n      add\n      tag_77\n      swap1\n      tag_57\n      jump\t// in\n    tag_77:\n      mload(0x40)\n      dup1\n      swap2\n      sub\n      swap1\n      revert\n    tag_76:\n        /* \"Escrow.sol\":1903:1908  false */\n      0x00\n        /* \"Escrow.sol\":1873:1883  agreements */\n      dup1\n        /* \"Escrow.sol\":1884:1887  _id */\n      dup4\n        /* \"Escrow.sol\":1873:1888  agreements[_id] */\n      dup2\n      sload\n      dup2\n      lt\n      tag_78\n      jumpi\n      tag_79\n      tag_38\n      jump\t// in\n    tag_79:\n    tag_78:\n      swap1\n      0x00\n      mstore\n      keccak256(0x00, 0x20)\n      swap1\n      0x05\n      mul\n      add\n        /* \"Escrow.sol\":1873:1900  agreements[_id].player2Paid */\n      0x04\n      add\n      0x01\n        /* \"Escrow.sol\":1873:1908  agreements[_id].player2Paid = false */\n      0x0100\n      exp\n      dup2\n      sload\n      dup2\n      0xff\n      mul\n      not\n      and\n      swap1\n      dup4\n      iszero\n      iszero\n      mul\n      or\n      swap1\n      sstore\n      pop\n        /* \"Escrow.sol\":1931:1941  agreements */\n      0x00\n        /* \"Escrow.sol\":1942:1945  _id */\n      dup3\n        /* \"Escrow.sol\":1931:1946  agreements[_id] */\n      dup2\n      sload\n      dup2\n      lt\n      tag_81\n      jumpi\n      tag_82\n      tag_38\n      jump\t// in\n    tag_82:\n    tag_81:\n      swap1\n      0x00\n      mstore\n      keccak256(0x00, 0x20)\n      swap1\n      0x05\n      mul\n      add\n        /* \"Escrow.sol\":1931:1954  agreements[_id].player2 */\n      0x01\n      add\n      0x00\n      swap1\n      sload\n      swap1\n      0x0100\n      exp\n      swap1\n      div\n      0xffffffffffffffffffffffffffffffffffffffff\n      and\n        /* \"Escrow.sol\":1923:1964  payable(agreements[_id].player2).transfer */\n      0xffffffffffffffffffffffffffffffffffffffff\n      and\n        /* \"Escrow.sol\":1923:1988  payable(agreements[_id].player2).transfer(agreements[_id].amount) */\n      0x08fc\n        /* \"Escrow.sol\":1965:1975  agreements */\n      0x00\n        /* \"Escrow.sol\":1976:1979  _id */\n      dup5\n        /* \"Escrow.sol\":1965:1980  agreements[_id] */\n      dup2\n      sload\n      dup2\n      lt\n      tag_84\n      jumpi\n      tag_85\n      tag_38\n      jump\t// in\n    tag_85:\n    tag_84:\n      swap1\n      0x00\n      mstore\n      keccak256(0x00, 0x20)\n      swap1\n      0x05\n      mul\n      add\n        /* \"Escrow.sol\":1965:1987  agreements[_id].amount */\n      0x03\n      add\n      sload\n        /* \"Escrow.sol\":1923:1988  payable(agreements[_id].player2).transfer(agreements[_id].amount) */\n      swap1\n      dup2\n      iszero\n      mul\n      swap1\n      mload(0x40)\n      0x00\n      mload(0x40)\n      dup1\n      dup4\n      sub\n      dup2\n      dup6\n      dup9\n      dup9\n      call\n      swap4\n      pop\n      pop\n      pop\n      pop\n      iszero\n      dup1\n      iszero\n      tag_88\n      jumpi\n      returndatasize\n      0x00\n      dup1\n      returndatacopy\n      revert(0x00, returndatasize)\n    tag_88:\n      pop\n        /* \"Escrow.sol\":1742:2000  if(msg.sender==agreements[_id].player2){... */\n    tag_72:\n        /* \"Escrow.sol\":1404:2007  function refund (uint _id) public payable onlyPlayers(_id) {... */\n      pop\n      pop\n      jump\t// out\n        /* \"Escrow.sol\":2015:2553  function complete (uint _id, address payable winner) public payable onlyController(_id) {... */\n    tag_21:\n        /* \"Escrow.sol\":2098:2101  _id */\n      dup2\n        /* \"Escrow.sol\":583:593  agreements */\n      0x00\n        /* \"Escrow.sol\":594:597  _id */\n      dup2\n        /* \"Escrow.sol\":583:598  agreements[_id] */\n      dup2\n      sload\n      dup2\n      lt\n      tag_90\n      jumpi\n      tag_91\n      tag_38\n      jump\t// in\n    tag_91:\n    tag_90:\n      swap1\n      0x00\n      mstore\n      keccak256(0x00, 0x20)\n      swap1\n      0x05\n      mul\n      add\n        /* \"Escrow.sol\":583:609  agreements[_id].controller */\n      0x02\n      add\n      0x00\n      swap1\n      sload\n      swap1\n      0x0100\n      exp\n      swap1\n      div\n      0xffffffffffffffffffffffffffffffffffffffff\n      and\n        /* \"Escrow.sol\":569:609  msg.sender == agreements[_id].controller */\n      0xffffffffffffffffffffffffffffffffffffffff\n      and\n        /* \"Escrow.sol\":569:579  msg.sender */\n      caller\n        /* \"Escrow.sol\":569:609  msg.sender == agreements[_id].controller */\n      0xffffffffffffffffffffffffffffffffffffffff\n      and\n      eq\n        /* \"Escrow.sol\":561:652  require(msg.sender == agreements[_id].controller, \"This can only be done by the Official.\") */\n      tag_93\n      jumpi\n      mload(0x40)\n      0x08c379a000000000000000000000000000000000000000000000000000000000\n      dup2\n      mstore\n      0x04\n      add\n      tag_94\n      swap1\n      tag_95\n      jump\t// in\n    tag_94:\n      mload(0x40)\n      dup1\n      swap2\n      sub\n      swap1\n      revert\n    tag_93:\n        /* \"Escrow.sol\":2127:2137  agreements */\n      0x00\n        /* \"Escrow.sol\":2138:2141  _id */\n      dup4\n        /* \"Escrow.sol\":2127:2142  agreements[_id] */\n      dup2\n      sload\n      dup2\n      lt\n      tag_97\n      jumpi\n      tag_98\n      tag_38\n      jump\t// in\n    tag_98:\n    tag_97:\n      swap1\n      0x00\n      mstore\n      keccak256(0x00, 0x20)\n      swap1\n      0x05\n      mul\n      add\n        /* \"Escrow.sol\":2127:2150  agreements[_id].player1 */\n      0x00\n      add\n      0x00\n      swap1\n      sload\n      swap1\n      0x0100\n      exp\n      swap1\n      div\n      0xffffffffffffffffffffffffffffffffffffffff\n      and\n        /* \"Escrow.sol\":2117:2150  winner == agreements[_id].player1 */\n      0xffffffffffffffffffffffffffffffffffffffff\n      and\n        /* \"Escrow.sol\":2117:2123  winner */\n      dup3\n        /* \"Escrow.sol\":2117:2150  winner == agreements[_id].player1 */\n      0xffffffffffffffffffffffffffffffffffffffff\n      and\n      sub\n        /* \"Escrow.sol\":2114:2325  if(winner == agreements[_id].player1){... */\n      tag_100\n      jumpi\n        /* \"Escrow.sol\":2174:2184  agreements */\n      0x00\n        /* \"Escrow.sol\":2185:2188  _id */\n      dup4\n        /* \"Escrow.sol\":2174:2189  agreements[_id] */\n      dup2\n      sload\n      dup2\n      lt\n      tag_101\n      jumpi\n      tag_102\n      tag_38\n      jump\t// in\n    tag_102:\n    tag_101:\n      swap1\n      0x00\n      mstore\n      keccak256(0x00, 0x20)\n      swap1\n      0x05\n      mul\n      add\n        /* \"Escrow.sol\":2174:2201  agreements[_id].player1Paid */\n      0x04\n      add\n      0x00\n      swap1\n      sload\n      swap1\n      0x0100\n      exp\n      swap1\n      div\n      0xff\n      and\n        /* \"Escrow.sol\":2166:2231  require(agreements[_id].player1Paid, \"Player1 has not paid yet.\") */\n      tag_104\n      jumpi\n      mload(0x40)\n      0x08c379a000000000000000000000000000000000000000000000000000000000\n      dup2\n      mstore\n      0x04\n      add\n      tag_105\n      swap1\n      tag_106\n      jump\t// in\n    tag_105:\n      mload(0x40)\n      dup1\n      swap2\n      sub\n      swap1\n      revert\n    tag_104:\n        /* \"Escrow.sol\":2254:2264  agreements */\n      0x00\n        /* \"Escrow.sol\":2265:2268  _id */\n      dup4\n        /* \"Escrow.sol\":2254:2269  agreements[_id] */\n      dup2\n      sload\n      dup2\n      lt\n      tag_107\n      jumpi\n      tag_108\n      tag_38\n      jump\t// in\n    tag_108:\n    tag_107:\n      swap1\n      0x00\n      mstore\n      keccak256(0x00, 0x20)\n      swap1\n      0x05\n      mul\n      add\n        /* \"Escrow.sol\":2254:2277  agreements[_id].player1 */\n      0x00\n      add\n      0x00\n      swap1\n      sload\n      swap1\n      0x0100\n      exp\n      swap1\n      div\n      0xffffffffffffffffffffffffffffffffffffffff\n      and\n        /* \"Escrow.sol\":2246:2287  payable(agreements[_id].player1).transfer */\n      0xffffffffffffffffffffffffffffffffffffffff\n      and\n        /* \"Escrow.sol\":2246:2313  payable(agreements[_id].player1).transfer(agreements[_id].amount*2) */\n      0x08fc\n        /* \"Escrow.sol\":2311:2312  2 */\n      0x02\n        /* \"Escrow.sol\":2288:2298  agreements */\n      0x00\n        /* \"Escrow.sol\":2299:2302  _id */\n      dup7\n        /* \"Escrow.sol\":2288:2303  agreements[_id] */\n      dup2\n      sload\n      dup2\n      lt\n      tag_110\n      jumpi\n      tag_111\n      tag_38\n      jump\t// in\n    tag_111:\n    tag_110:\n      swap1\n      0x00\n      mstore\n      keccak256(0x00, 0x20)\n      swap1\n      0x05\n      mul\n      add\n        /* \"Escrow.sol\":2288:2310  agreements[_id].amount */\n      0x03\n      add\n      sload\n        /* \"Escrow.sol\":2288:2312  agreements[_id].amount*2 */\n      tag_113\n      swap2\n      swap1\n      tag_114\n      jump\t// in\n    tag_113:\n        /* \"Escrow.sol\":2246:2313  payable(agreements[_id].player1).transfer(agreements[_id].amount*2) */\n      swap1\n      dup2\n      iszero\n      mul\n      swap1\n      mload(0x40)\n      0x00\n      mload(0x40)\n      dup1\n      dup4\n      sub\n      dup2\n      dup6\n      dup9\n      dup9\n      call\n      swap4\n      pop\n      pop\n      pop\n      pop\n      iszero\n      dup1\n      iszero\n      tag_116\n      jumpi\n      returndatasize\n      0x00\n      dup1\n      returndatacopy\n      revert(0x00, returndatasize)\n    tag_116:\n      pop\n        /* \"Escrow.sol\":2114:2325  if(winner == agreements[_id].player1){... */\n    tag_100:\n        /* \"Escrow.sol\":2348:2358  agreements */\n      0x00\n        /* \"Escrow.sol\":2359:2362  _id */\n      dup4\n        /* \"Escrow.sol\":2348:2363  agreements[_id] */\n      dup2\n      sload\n      dup2\n      lt\n      tag_117\n      jumpi\n      tag_118\n      tag_38\n      jump\t// in\n    tag_118:\n    tag_117:\n      swap1\n      0x00\n      mstore\n      keccak256(0x00, 0x20)\n      swap1\n      0x05\n      mul\n      add\n        /* \"Escrow.sol\":2348:2371  agreements[_id].player2 */\n      0x01\n      add\n      0x00\n      swap1\n      sload\n      swap1\n      0x0100\n      exp\n      swap1\n      div\n      0xffffffffffffffffffffffffffffffffffffffff\n      and\n        /* \"Escrow.sol\":2338:2371  winner == agreements[_id].player2 */\n      0xffffffffffffffffffffffffffffffffffffffff\n      and\n        /* \"Escrow.sol\":2338:2344  winner */\n      dup3\n        /* \"Escrow.sol\":2338:2371  winner == agreements[_id].player2 */\n      0xffffffffffffffffffffffffffffffffffffffff\n      and\n      sub\n        /* \"Escrow.sol\":2335:2546  if(winner == agreements[_id].player2){... */\n      tag_120\n      jumpi\n        /* \"Escrow.sol\":2395:2405  agreements */\n      0x00\n        /* \"Escrow.sol\":2406:2409  _id */\n      dup4\n        /* \"Escrow.sol\":2395:2410  agreements[_id] */\n      dup2\n      sload\n      dup2\n      lt\n      tag_121\n      jumpi\n      tag_122\n      tag_38\n      jump\t// in\n    tag_122:\n    tag_121:\n      swap1\n      0x00\n      mstore\n      keccak256(0x00, 0x20)\n      swap1\n      0x05\n      mul\n      add\n        /* \"Escrow.sol\":2395:2422  agreements[_id].player2Paid */\n      0x04\n      add\n      0x01\n      swap1\n      sload\n      swap1\n      0x0100\n      exp\n      swap1\n      div\n      0xff\n      and\n        /* \"Escrow.sol\":2387:2452  require(agreements[_id].player2Paid, \"Player2 has not paid yet.\") */\n      tag_124\n      jumpi\n      mload(0x40)\n      0x08c379a000000000000000000000000000000000000000000000000000000000\n      dup2\n      mstore\n      0x04\n      add\n      tag_125\n      swap1\n      tag_126\n      jump\t// in\n    tag_125:\n      mload(0x40)\n      dup1\n      swap2\n      sub\n      swap1\n      revert\n    tag_124:\n        /* \"Escrow.sol\":2475:2485  agreements */\n      0x00\n        /* \"Escrow.sol\":2486:2489  _id */\n      dup4\n        /* \"Escrow.sol\":2475:2490  agreements[_id] */\n      dup2\n      sload\n      dup2\n      lt\n      tag_127\n      jumpi\n      tag_128\n      tag_38\n      jump\t// in\n    tag_128:\n    tag_127:\n      swap1\n      0x00\n      mstore\n      keccak256(0x00, 0x20)\n      swap1\n      0x05\n      mul\n      add\n        /* \"Escrow.sol\":2475:2498  agreements[_id].player2 */\n      0x01\n      add\n      0x00\n      swap1\n      sload\n      swap1\n      0x0100\n      exp\n      swap1\n      div\n      0xffffffffffffffffffffffffffffffffffffffff\n      and\n        /* \"Escrow.sol\":2467:2508  payable(agreements[_id].player2).transfer */\n      0xffffffffffffffffffffffffffffffffffffffff\n      and\n        /* \"Escrow.sol\":2467:2534  payable(agreements[_id].player2).transfer(agreements[_id].amount*2) */\n      0x08fc\n        /* \"Escrow.sol\":2532:2533  2 */\n      0x02\n        /* \"Escrow.sol\":2509:2519  agreements */\n      0x00\n        /* \"Escrow.sol\":2520:2523  _id */\n      dup7\n        /* \"Escrow.sol\":2509:2524  agreements[_id] */\n      dup2\n      sload\n      dup2\n      lt\n      tag_130\n      jumpi\n      tag_131\n      tag_38\n      jump\t// in\n    tag_131:\n    tag_130:\n      swap1\n      0x00\n      mstore\n      keccak256(0x00, 0x20)\n      swap1\n      0x05\n      mul\n      add\n        /* \"Escrow.sol\":2509:2531  agreements[_id].amount */\n      0x03\n      add\n      sload\n        /* \"Escrow.sol\":2509:2533  agreements[_id].amount*2 */\n      tag_133\n      swap2\n      swap1\n      tag_114\n      jump\t// in\n    tag_133:\n        /* \"Escrow.sol\":2467:2534  payable(agreements[_id].player2).transfer(agreements[_id].amount*2) */\n      swap1\n      dup2\n      iszero\n      mul\n      swap1\n      mload(0x40)\n      0x00\n      mload(0x40)\n      dup1\n      dup4\n      sub\n      dup2\n      dup6\n      dup9\n      dup9\n      call\n      swap4\n      pop\n      pop\n      pop\n      pop\n      iszero\n      dup1\n      iszero\n      tag_135\n      jumpi\n      returndatasize\n      0x00\n      dup1\n      returndatacopy\n      revert(0x00, returndatasize)\n    tag_135:\n      pop\n        /* \"Escrow.sol\":2335:2546  if(winner == agreements[_id].player2){... */\n    tag_120:\n        /* \"Escrow.sol\":2015:2553  function complete (uint _id, address payable winner) public payable onlyController(_id) {... */\n      pop\n      pop\n      pop\n      jump\t// out\n        /* \"Escrow.sol\":920:1396  function deposit (uint _id) public payable onlyPlayers(_id) {... */\n    tag_24:\n        /* \"Escrow.sol\":975:978  _id */\n      dup1\n        /* \"Escrow.sol\":374:384  agreements */\n      0x00\n        /* \"Escrow.sol\":385:388  _id */\n      dup2\n        /* \"Escrow.sol\":374:389  agreements[_id] */\n      dup2\n      sload\n      dup2\n      lt\n      tag_137\n      jumpi\n      tag_138\n      tag_38\n      jump\t// in\n    tag_138:\n    tag_137:\n      swap1\n      0x00\n      mstore\n      keccak256(0x00, 0x20)\n      swap1\n      0x05\n      mul\n      add\n        /* \"Escrow.sol\":374:397  agreements[_id].player1 */\n      0x00\n      add\n      0x00\n      swap1\n      sload\n      swap1\n      0x0100\n      exp\n      swap1\n      div\n      0xffffffffffffffffffffffffffffffffffffffff\n      and\n        /* \"Escrow.sol\":360:397  msg.sender == agreements[_id].player1 */\n      0xffffffffffffffffffffffffffffffffffffffff\n      and\n        /* \"Escrow.sol\":360:370  msg.sender */\n      caller\n        /* \"Escrow.sol\":360:397  msg.sender == agreements[_id].player1 */\n      0xffffffffffffffffffffffffffffffffffffffff\n      and\n      eq\n        /* \"Escrow.sol\":360:438  msg.sender == agreements[_id].player1 || msg.sender == agreements[_id].player2 */\n      dup1\n      tag_140\n      jumpi\n      pop\n        /* \"Escrow.sol\":415:425  agreements */\n      0x00\n        /* \"Escrow.sol\":426:429  _id */\n      dup2\n        /* \"Escrow.sol\":415:430  agreements[_id] */\n      dup2\n      sload\n      dup2\n      lt\n      tag_141\n      jumpi\n      tag_142\n      tag_38\n      jump\t// in\n    tag_142:\n    tag_141:\n      swap1\n      0x00\n      mstore\n      keccak256(0x00, 0x20)\n      swap1\n      0x05\n      mul\n      add\n        /* \"Escrow.sol\":415:438  agreements[_id].player2 */\n      0x01\n      add\n      0x00\n      swap1\n      sload\n      swap1\n      0x0100\n      exp\n      swap1\n      div\n      0xffffffffffffffffffffffffffffffffffffffff\n      and\n        /* \"Escrow.sol\":401:438  msg.sender == agreements[_id].player2 */\n      0xffffffffffffffffffffffffffffffffffffffff\n      and\n        /* \"Escrow.sol\":401:411  msg.sender */\n      caller\n        /* \"Escrow.sol\":401:438  msg.sender == agreements[_id].player2 */\n      0xffffffffffffffffffffffffffffffffffffffff\n      and\n      eq\n        /* \"Escrow.sol\":360:438  msg.sender == agreements[_id].player1 || msg.sender == agreements[_id].player2 */\n    tag_140:\n        /* \"Escrow.sol\":352:489  require(msg.sender == agreements[_id].player1 || msg.sender == agreements[_id].player2, \"The deposit is acceptable by only the players.\") */\n      tag_144\n      jumpi\n      mload(0x40)\n      0x08c379a000000000000000000000000000000000000000000000000000000000\n      dup2\n      mstore\n      0x04\n      add\n      tag_145\n      swap1\n      tag_46\n      jump\t// in\n    tag_145:\n      mload(0x40)\n      dup1\n      swap2\n      sub\n      swap1\n      revert\n    tag_144:\n        /* \"Escrow.sol\":1006:1016  agreements */\n      0x00\n        /* \"Escrow.sol\":1017:1020  _id */\n      dup3\n        /* \"Escrow.sol\":1006:1021  agreements[_id] */\n      dup2\n      sload\n      dup2\n      lt\n      tag_147\n      jumpi\n      tag_148\n      tag_38\n      jump\t// in\n    tag_148:\n    tag_147:\n      swap1\n      0x00\n      mstore\n      keccak256(0x00, 0x20)\n      swap1\n      0x05\n      mul\n      add\n        /* \"Escrow.sol\":1006:1029  agreements[_id].player1 */\n      0x00\n      add\n      0x00\n      swap1\n      sload\n      swap1\n      0x0100\n      exp\n      swap1\n      div\n      0xffffffffffffffffffffffffffffffffffffffff\n      and\n        /* \"Escrow.sol\":994:1029  msg.sender==agreements[_id].player1 */\n      0xffffffffffffffffffffffffffffffffffffffff\n      and\n        /* \"Escrow.sol\":994:1004  msg.sender */\n      caller\n        /* \"Escrow.sol\":994:1029  msg.sender==agreements[_id].player1 */\n      0xffffffffffffffffffffffffffffffffffffffff\n      and\n      sub\n        /* \"Escrow.sol\":991:1185  if(msg.sender==agreements[_id].player1){... */\n      tag_150\n      jumpi\n        /* \"Escrow.sol\":1066:1076  agreements */\n      0x00\n        /* \"Escrow.sol\":1077:1080  _id */\n      dup3\n        /* \"Escrow.sol\":1066:1081  agreements[_id] */\n      dup2\n      sload\n      dup2\n      lt\n      tag_151\n      jumpi\n      tag_152\n      tag_38\n      jump\t// in\n    tag_152:\n    tag_151:\n      swap1\n      0x00\n      mstore\n      keccak256(0x00, 0x20)\n      swap1\n      0x05\n      mul\n      add\n        /* \"Escrow.sol\":1066:1088  agreements[_id].amount */\n      0x03\n      add\n      sload\n        /* \"Escrow.sol\":1053:1062  msg.value */\n      callvalue\n        /* \"Escrow.sol\":1053:1088  msg.value == agreements[_id].amount */\n      eq\n        /* \"Escrow.sol\":1045:1124  require(msg.value == agreements[_id].amount, \"Amount is not as per the terms.\") */\n      tag_154\n      jumpi\n      mload(0x40)\n      0x08c379a000000000000000000000000000000000000000000000000000000000\n      dup2\n      mstore\n      0x04\n      add\n      tag_155\n      swap1\n      tag_156\n      jump\t// in\n    tag_155:\n      mload(0x40)\n      dup1\n      swap2\n      sub\n      swap1\n      revert\n    tag_154:\n        /* \"Escrow.sol\":1169:1173  true */\n      0x01\n        /* \"Escrow.sol\":1139:1149  agreements */\n      0x00\n        /* \"Escrow.sol\":1150:1153  _id */\n      dup4\n        /* \"Escrow.sol\":1139:1154  agreements[_id] */\n      dup2\n      sload\n      dup2\n      lt\n      tag_157\n      jumpi\n      tag_158\n      tag_38\n      jump\t// in\n    tag_158:\n    tag_157:\n      swap1\n      0x00\n      mstore\n      keccak256(0x00, 0x20)\n      swap1\n      0x05\n      mul\n      add\n        /* \"Escrow.sol\":1139:1166  agreements[_id].player1Paid */\n      0x04\n      add\n      0x00\n        /* \"Escrow.sol\":1139:1173  agreements[_id].player1Paid = true */\n      0x0100\n      exp\n      dup2\n      sload\n      dup2\n      0xff\n      mul\n      not\n      and\n      swap1\n      dup4\n      iszero\n      iszero\n      mul\n      or\n      swap1\n      sstore\n      pop\n        /* \"Escrow.sol\":991:1185  if(msg.sender==agreements[_id].player1){... */\n    tag_150:\n        /* \"Escrow.sol\":1210:1220  agreements */\n      0x00\n        /* \"Escrow.sol\":1221:1224  _id */\n      dup3\n        /* \"Escrow.sol\":1210:1225  agreements[_id] */\n      dup2\n      sload\n      dup2\n      lt\n      tag_160\n      jumpi\n      tag_161\n      tag_38\n      jump\t// in\n    tag_161:\n    tag_160:\n      swap1\n      0x00\n      mstore\n      keccak256(0x00, 0x20)\n      swap1\n      0x05\n      mul\n      add\n        /* \"Escrow.sol\":1210:1233  agreements[_id].player2 */\n      0x01\n      add\n      0x00\n      swap1\n      sload\n      swap1\n      0x0100\n      exp\n      swap1\n      div\n      0xffffffffffffffffffffffffffffffffffffffff\n      and\n        /* \"Escrow.sol\":1198:1233  msg.sender==agreements[_id].player2 */\n      0xffffffffffffffffffffffffffffffffffffffff\n      and\n        /* \"Escrow.sol\":1198:1208  msg.sender */\n      caller\n        /* \"Escrow.sol\":1198:1233  msg.sender==agreements[_id].player2 */\n      0xffffffffffffffffffffffffffffffffffffffff\n      and\n      sub\n        /* \"Escrow.sol\":1195:1389  if(msg.sender==agreements[_id].player2){... */\n      tag_163\n      jumpi\n        /* \"Escrow.sol\":1270:1280  agreements */\n      0x00\n        /* \"Escrow.sol\":1281:1284  _id */\n      dup3\n        /* \"Escrow.sol\":1270:1285  agreements[_id] */\n      dup2\n      sload\n      dup2\n      lt\n      tag_164\n      jumpi\n      tag_165\n      tag_38\n      jump\t// in\n    tag_165:\n    tag_164:\n      swap1\n      0x00\n      mstore\n      keccak256(0x00, 0x20)\n      swap1\n      0x05\n      mul\n      add\n        /* \"Escrow.sol\":1270:1292  agreements[_id].amount */\n      0x03\n      add\n      sload\n        /* \"Escrow.sol\":1257:1266  msg.value */\n      callvalue\n        /* \"Escrow.sol\":1257:1292  msg.value == agreements[_id].amount */\n      eq\n        /* \"Escrow.sol\":1249:1328  require(msg.value == agreements[_id].amount, \"Amount is not as per the terms.\") */\n      tag_167\n      jumpi\n      mload(0x40)\n      0x08c379a000000000000000000000000000000000000000000000000000000000\n      dup2\n      mstore\n      0x04\n      add\n      tag_168\n      swap1\n      tag_156\n      jump\t// in\n    tag_168:\n      mload(0x40)\n      dup1\n      swap2\n      sub\n      swap1\n      revert\n    tag_167:\n        /* \"Escrow.sol\":1373:1377  true */\n      0x01\n        /* \"Escrow.sol\":1343:1353  agreements */\n      0x00\n        /* \"Escrow.sol\":1354:1357  _id */\n      dup4\n        /* \"Escrow.sol\":1343:1358  agreements[_id] */\n      dup2\n      sload\n      dup2\n      lt\n      tag_169\n      jumpi\n      tag_170\n      tag_38\n      jump\t// in\n    tag_170:\n    tag_169:\n      swap1\n      0x00\n      mstore\n      keccak256(0x00, 0x20)\n      swap1\n      0x05\n      mul\n      add\n        /* \"Escrow.sol\":1343:1370  agreements[_id].player2Paid */\n      0x04\n      add\n      0x01\n        /* \"Escrow.sol\":1343:1377  agreements[_id].player2Paid = true */\n      0x0100\n      exp\n      dup2\n      sload\n      dup2\n      0xff\n      mul\n      not\n      and\n      swap1\n      dup4\n      iszero\n      iszero\n      mul\n      or\n      swap1\n      sstore\n      pop\n        /* \"Escrow.sol\":1195:1389  if(msg.sender==agreements[_id].player2){... */\n    tag_163:\n        /* \"Escrow.sol\":920:1396  function deposit (uint _id) public payable onlyPlayers(_id) {... */\n      pop\n      pop\n      jump\t// out\n        /* \"Escrow.sol\":271:300  Agreement[] public agreements */\n    tag_28:\n      0x00\n      dup2\n      dup2\n      sload\n      dup2\n      lt\n      tag_172\n      jumpi\n      0x00\n      dup1\n      revert\n    tag_172:\n      swap1\n      0x00\n      mstore\n      keccak256(0x00, 0x20)\n      swap1\n      0x05\n      mul\n      add\n      0x00\n      swap2\n      pop\n      swap1\n      pop\n      dup1\n      0x00\n      add\n      0x00\n      swap1\n      sload\n      swap1\n      0x0100\n      exp\n      swap1\n      div\n      0xffffffffffffffffffffffffffffffffffffffff\n      and\n      swap1\n      dup1\n      0x01\n      add\n      0x00\n      swap1\n      sload\n      swap1\n      0x0100\n      exp\n      swap1\n      div\n      0xffffffffffffffffffffffffffffffffffffffff\n      and\n      swap1\n      dup1\n      0x02\n      add\n      0x00\n      swap1\n      sload\n      swap1\n      0x0100\n      exp\n      swap1\n      div\n      0xffffffffffffffffffffffffffffffffffffffff\n      and\n      swap1\n      dup1\n      0x03\n      add\n      sload\n      swap1\n      dup1\n      0x04\n      add\n      0x00\n      swap1\n      sload\n      swap1\n      0x0100\n      exp\n      swap1\n      div\n      0xff\n      and\n      swap1\n      dup1\n      0x04\n      add\n      0x01\n      swap1\n      sload\n      swap1\n      0x0100\n      exp\n      swap1\n      div\n      0xff\n      and\n      swap1\n      pop\n      dup7\n      jump\t// out\n        /* \"#utility.yul\":88:205   */\n    tag_175:\n        /* \"#utility.yul\":197:198   */\n      0x00\n        /* \"#utility.yul\":194:195   */\n      dup1\n        /* \"#utility.yul\":187:199   */\n      revert\n        /* \"#utility.yul\":334:460   */\n    tag_177:\n        /* \"#utility.yul\":371:378   */\n      0x00\n        /* \"#utility.yul\":411:453   */\n      0xffffffffffffffffffffffffffffffffffffffff\n        /* \"#utility.yul\":404:409   */\n      dup3\n        /* \"#utility.yul\":400:454   */\n      and\n        /* \"#utility.yul\":389:454   */\n      swap1\n      pop\n        /* \"#utility.yul\":334:460   */\n      swap2\n      swap1\n      pop\n      jump\t// out\n        /* \"#utility.yul\":466:562   */\n    tag_178:\n        /* \"#utility.yul\":503:510   */\n      0x00\n        /* \"#utility.yul\":532:556   */\n      tag_211\n        /* \"#utility.yul\":550:555   */\n      dup3\n        /* \"#utility.yul\":532:556   */\n      tag_177\n      jump\t// in\n    tag_211:\n        /* \"#utility.yul\":521:556   */\n      swap1\n      pop\n        /* \"#utility.yul\":466:562   */\n      swap2\n      swap1\n      pop\n      jump\t// out\n        /* \"#utility.yul\":568:690   */\n    tag_179:\n        /* \"#utility.yul\":641:665   */\n      tag_213\n        /* \"#utility.yul\":659:664   */\n      dup2\n        /* \"#utility.yul\":641:665   */\n      tag_178\n      jump\t// in\n    tag_213:\n        /* \"#utility.yul\":634:639   */\n      dup2\n        /* \"#utility.yul\":631:666   */\n      eq\n        /* \"#utility.yul\":621:684   */\n      tag_214\n      jumpi\n        /* \"#utility.yul\":680:681   */\n      0x00\n        /* \"#utility.yul\":677:678   */\n      dup1\n        /* \"#utility.yul\":670:682   */\n      revert\n        /* \"#utility.yul\":621:684   */\n    tag_214:\n        /* \"#utility.yul\":568:690   */\n      pop\n      jump\t// out\n        /* \"#utility.yul\":696:835   */\n    tag_180:\n        /* \"#utility.yul\":742:747   */\n      0x00\n        /* \"#utility.yul\":780:786   */\n      dup2\n        /* \"#utility.yul\":767:787   */\n      calldataload\n        /* \"#utility.yul\":758:787   */\n      swap1\n      pop\n        /* \"#utility.yul\":796:829   */\n      tag_216\n        /* \"#utility.yul\":823:828   */\n      dup2\n        /* \"#utility.yul\":796:829   */\n      tag_179\n      jump\t// in\n    tag_216:\n        /* \"#utility.yul\":696:835   */\n      swap3\n      swap2\n      pop\n      pop\n      jump\t// out\n        /* \"#utility.yul\":841:918   */\n    tag_181:\n        /* \"#utility.yul\":878:885   */\n      0x00\n        /* \"#utility.yul\":907:912   */\n      dup2\n        /* \"#utility.yul\":896:912   */\n      swap1\n      pop\n        /* \"#utility.yul\":841:918   */\n      swap2\n      swap1\n      pop\n      jump\t// out\n        /* \"#utility.yul\":924:1046   */\n    tag_182:\n        /* \"#utility.yul\":997:1021   */\n      tag_219\n        /* \"#utility.yul\":1015:1020   */\n      dup2\n        /* \"#utility.yul\":997:1021   */\n      tag_181\n      jump\t// in\n    tag_219:\n        /* \"#utility.yul\":990:995   */\n      dup2\n        /* \"#utility.yul\":987:1022   */\n      eq\n        /* \"#utility.yul\":977:1040   */\n      tag_220\n      jumpi\n        /* \"#utility.yul\":1036:1037   */\n      0x00\n        /* \"#utility.yul\":1033:1034   */\n      dup1\n        /* \"#utility.yul\":1026:1038   */\n      revert\n        /* \"#utility.yul\":977:1040   */\n    tag_220:\n        /* \"#utility.yul\":924:1046   */\n      pop\n      jump\t// out\n        /* \"#utility.yul\":1052:1191   */\n    tag_183:\n        /* \"#utility.yul\":1098:1103   */\n      0x00\n        /* \"#utility.yul\":1136:1142   */\n      dup2\n        /* \"#utility.yul\":1123:1143   */\n      calldataload\n        /* \"#utility.yul\":1114:1143   */\n      swap1\n      pop\n        /* \"#utility.yul\":1152:1185   */\n      tag_222\n        /* \"#utility.yul\":1179:1184   */\n      dup2\n        /* \"#utility.yul\":1152:1185   */\n      tag_182\n      jump\t// in\n    tag_222:\n        /* \"#utility.yul\":1052:1191   */\n      swap3\n      swap2\n      pop\n      pop\n      jump\t// out\n        /* \"#utility.yul\":1197:1816   */\n    tag_10:\n        /* \"#utility.yul\":1274:1280   */\n      0x00\n        /* \"#utility.yul\":1282:1288   */\n      dup1\n        /* \"#utility.yul\":1290:1296   */\n      0x00\n        /* \"#utility.yul\":1339:1341   */\n      0x60\n        /* \"#utility.yul\":1327:1336   */\n      dup5\n        /* \"#utility.yul\":1318:1325   */\n      dup7\n        /* \"#utility.yul\":1314:1337   */\n      sub\n        /* \"#utility.yul\":1310:1342   */\n      slt\n        /* \"#utility.yul\":1307:1426   */\n      iszero\n      tag_224\n      jumpi\n        /* \"#utility.yul\":1345:1424   */\n      tag_225\n      tag_175\n      jump\t// in\n    tag_225:\n        /* \"#utility.yul\":1307:1426   */\n    tag_224:\n        /* \"#utility.yul\":1465:1466   */\n      0x00\n        /* \"#utility.yul\":1490:1543   */\n      tag_226\n        /* \"#utility.yul\":1535:1542   */\n      dup7\n        /* \"#utility.yul\":1526:1532   */\n      dup3\n        /* \"#utility.yul\":1515:1524   */\n      dup8\n        /* \"#utility.yul\":1511:1533   */\n      add\n        /* \"#utility.yul\":1490:1543   */\n      tag_180\n      jump\t// in\n    tag_226:\n        /* \"#utility.yul\":1480:1543   */\n      swap4\n      pop\n        /* \"#utility.yul\":1436:1553   */\n      pop\n        /* \"#utility.yul\":1592:1594   */\n      0x20\n        /* \"#utility.yul\":1618:1671   */\n      tag_227\n        /* \"#utility.yul\":1663:1670   */\n      dup7\n        /* \"#utility.yul\":1654:1660   */\n      dup3\n        /* \"#utility.yul\":1643:1652   */\n      dup8\n        /* \"#utility.yul\":1639:1661   */\n      add\n        /* \"#utility.yul\":1618:1671   */\n      tag_180\n      jump\t// in\n    tag_227:\n        /* \"#utility.yul\":1608:1671   */\n      swap3\n      pop\n        /* \"#utility.yul\":1563:1681   */\n      pop\n        /* \"#utility.yul\":1720:1722   */\n      0x40\n        /* \"#utility.yul\":1746:1799   */\n      tag_228\n        /* \"#utility.yul\":1791:1798   */\n      dup7\n        /* \"#utility.yul\":1782:1788   */\n      dup3\n        /* \"#utility.yul\":1771:1780   */\n      dup8\n        /* \"#utility.yul\":1767:1789   */\n      add\n        /* \"#utility.yul\":1746:1799   */\n      tag_183\n      jump\t// in\n    tag_228:\n        /* \"#utility.yul\":1736:1799   */\n      swap2\n      pop\n        /* \"#utility.yul\":1691:1809   */\n      pop\n        /* \"#utility.yul\":1197:1816   */\n      swap3\n      pop\n      swap3\n      pop\n      swap3\n      jump\t// out\n        /* \"#utility.yul\":1822:1940   */\n    tag_184:\n        /* \"#utility.yul\":1909:1933   */\n      tag_230\n        /* \"#utility.yul\":1927:1932   */\n      dup2\n        /* \"#utility.yul\":1909:1933   */\n      tag_181\n      jump\t// in\n    tag_230:\n        /* \"#utility.yul\":1904:1907   */\n      dup3\n        /* \"#utility.yul\":1897:1934   */\n      mstore\n        /* \"#utility.yul\":1822:1940   */\n      pop\n      pop\n      jump\t// out\n        /* \"#utility.yul\":1946:2168   */\n    tag_13:\n        /* \"#utility.yul\":2039:2043   */\n      0x00\n        /* \"#utility.yul\":2077:2079   */\n      0x20\n        /* \"#utility.yul\":2066:2075   */\n      dup3\n        /* \"#utility.yul\":2062:2080   */\n      add\n        /* \"#utility.yul\":2054:2080   */\n      swap1\n      pop\n        /* \"#utility.yul\":2090:2161   */\n      tag_232\n        /* \"#utility.yul\":2158:2159   */\n      0x00\n        /* \"#utility.yul\":2147:2156   */\n      dup4\n        /* \"#utility.yul\":2143:2160   */\n      add\n        /* \"#utility.yul\":2134:2140   */\n      dup5\n        /* \"#utility.yul\":2090:2161   */\n      tag_184\n      jump\t// in\n    tag_232:\n        /* \"#utility.yul\":1946:2168   */\n      swap3\n      swap2\n      pop\n      pop\n      jump\t// out\n        /* \"#utility.yul\":2174:2503   */\n    tag_16:\n        /* \"#utility.yul\":2233:2239   */\n      0x00\n        /* \"#utility.yul\":2282:2284   */\n      0x20\n        /* \"#utility.yul\":2270:2279   */\n      dup3\n        /* \"#utility.yul\":2261:2268   */\n      dup5\n        /* \"#utility.yul\":2257:2280   */\n      sub\n        /* \"#utility.yul\":2253:2285   */\n      slt\n        /* \"#utility.yul\":2250:2369   */\n      iszero\n      tag_234\n      jumpi\n        /* \"#utility.yul\":2288:2367   */\n      tag_235\n      tag_175\n      jump\t// in\n    tag_235:\n        /* \"#utility.yul\":2250:2369   */\n    tag_234:\n        /* \"#utility.yul\":2408:2409   */\n      0x00\n        /* \"#utility.yul\":2433:2486   */\n      tag_236\n        /* \"#utility.yul\":2478:2485   */\n      dup5\n        /* \"#utility.yul\":2469:2475   */\n      dup3\n        /* \"#utility.yul\":2458:2467   */\n      dup6\n        /* \"#utility.yul\":2454:2476   */\n      add\n        /* \"#utility.yul\":2433:2486   */\n      tag_183\n      jump\t// in\n    tag_236:\n        /* \"#utility.yul\":2423:2486   */\n      swap2\n      pop\n        /* \"#utility.yul\":2379:2496   */\n      pop\n        /* \"#utility.yul\":2174:2503   */\n      swap3\n      swap2\n      pop\n      pop\n      jump\t// out\n        /* \"#utility.yul\":2509:2613   */\n    tag_185:\n        /* \"#utility.yul\":2554:2561   */\n      0x00\n        /* \"#utility.yul\":2583:2607   */\n      tag_238\n        /* \"#utility.yul\":2601:2606   */\n      dup3\n        /* \"#utility.yul\":2583:2607   */\n      tag_177\n      jump\t// in\n    tag_238:\n        /* \"#utility.yul\":2572:2607   */\n      swap1\n      pop\n        /* \"#utility.yul\":2509:2613   */\n      swap2\n      swap1\n      pop\n      jump\t// out\n        /* \"#utility.yul\":2619:2757   */\n    tag_186:\n        /* \"#utility.yul\":2700:2732   */\n      tag_240\n        /* \"#utility.yul\":2726:2731   */\n      dup2\n        /* \"#utility.yul\":2700:2732   */\n      tag_185\n      jump\t// in\n    tag_240:\n        /* \"#utility.yul\":2693:2698   */\n      dup2\n        /* \"#utility.yul\":2690:2733   */\n      eq\n        /* \"#utility.yul\":2680:2751   */\n      tag_241\n      jumpi\n        /* \"#utility.yul\":2747:2748   */\n      0x00\n        /* \"#utility.yul\":2744:2745   */\n      dup1\n        /* \"#utility.yul\":2737:2749   */\n      revert\n        /* \"#utility.yul\":2680:2751   */\n    tag_241:\n        /* \"#utility.yul\":2619:2757   */\n      pop\n      jump\t// out\n        /* \"#utility.yul\":2763:2918   */\n    tag_187:\n        /* \"#utility.yul\":2817:2822   */\n      0x00\n        /* \"#utility.yul\":2855:2861   */\n      dup2\n        /* \"#utility.yul\":2842:2862   */\n      calldataload\n        /* \"#utility.yul\":2833:2862   */\n      swap1\n      pop\n        /* \"#utility.yul\":2871:2912   */\n      tag_243\n        /* \"#utility.yul\":2906:2911   */\n      dup2\n        /* \"#utility.yul\":2871:2912   */\n      tag_186\n      jump\t// in\n    tag_243:\n        /* \"#utility.yul\":2763:2918   */\n      swap3\n      swap2\n      pop\n      pop\n      jump\t// out\n        /* \"#utility.yul\":2924:3414   */\n    tag_20:\n        /* \"#utility.yul\":3000:3006   */\n      0x00\n        /* \"#utility.yul\":3008:3014   */\n      dup1\n        /* \"#utility.yul\":3057:3059   */\n      0x40\n        /* \"#utility.yul\":3045:3054   */\n      dup4\n        /* \"#utility.yul\":3036:3043   */\n      dup6\n        /* \"#utility.yul\":3032:3055   */\n      sub\n        /* \"#utility.yul\":3028:3060   */\n      slt\n        /* \"#utility.yul\":3025:3144   */\n      iszero\n      tag_245\n      jumpi\n        /* \"#utility.yul\":3063:3142   */\n      tag_246\n      tag_175\n      jump\t// in\n    tag_246:\n        /* \"#utility.yul\":3025:3144   */\n    tag_245:\n        /* \"#utility.yul\":3183:3184   */\n      0x00\n        /* \"#utility.yul\":3208:3261   */\n      tag_247\n        /* \"#utility.yul\":3253:3260   */\n      dup6\n        /* \"#utility.yul\":3244:3250   */\n      dup3\n        /* \"#utility.yul\":3233:3242   */\n      dup7\n        /* \"#utility.yul\":3229:3251   */\n      add\n        /* \"#utility.yul\":3208:3261   */\n      tag_183\n      jump\t// in\n    tag_247:\n        /* \"#utility.yul\":3198:3261   */\n      swap3\n      pop\n        /* \"#utility.yul\":3154:3271   */\n      pop\n        /* \"#utility.yul\":3310:3312   */\n      0x20\n        /* \"#utility.yul\":3336:3397   */\n      tag_248\n        /* \"#utility.yul\":3389:3396   */\n      dup6\n        /* \"#utility.yul\":3380:3386   */\n      dup3\n        /* \"#utility.yul\":3369:3378   */\n      dup7\n        /* \"#utility.yul\":3365:3387   */\n      add\n        /* \"#utility.yul\":3336:3397   */\n      tag_187\n      jump\t// in\n    tag_248:\n        /* \"#utility.yul\":3326:3397   */\n      swap2\n      pop\n        /* \"#utility.yul\":3281:3407   */\n      pop\n        /* \"#utility.yul\":2924:3414   */\n      swap3\n      pop\n      swap3\n      swap1\n      pop\n      jump\t// out\n        /* \"#utility.yul\":3420:3538   */\n    tag_188:\n        /* \"#utility.yul\":3507:3531   */\n      tag_250\n        /* \"#utility.yul\":3525:3530   */\n      dup2\n        /* \"#utility.yul\":3507:3531   */\n      tag_178\n      jump\t// in\n    tag_250:\n        /* \"#utility.yul\":3502:3505   */\n      dup3\n        /* \"#utility.yul\":3495:3532   */\n      mstore\n        /* \"#utility.yul\":3420:3538   */\n      pop\n      pop\n      jump\t// out\n        /* \"#utility.yul\":3544:3634   */\n    tag_189:\n        /* \"#utility.yul\":3578:3585   */\n      0x00\n        /* \"#utility.yul\":3621:3626   */\n      dup2\n        /* \"#utility.yul\":3614:3627   */\n      iszero\n        /* \"#utility.yul\":3607:3628   */\n      iszero\n        /* \"#utility.yul\":3596:3628   */\n      swap1\n      pop\n        /* \"#utility.yul\":3544:3634   */\n      swap2\n      swap1\n      pop\n      jump\t// out\n        /* \"#utility.yul\":3640:3749   */\n    tag_190:\n        /* \"#utility.yul\":3721:3742   */\n      tag_253\n        /* \"#utility.yul\":3736:3741   */\n      dup2\n        /* \"#utility.yul\":3721:3742   */\n      tag_189\n      jump\t// in\n    tag_253:\n        /* \"#utility.yul\":3716:3719   */\n      dup3\n        /* \"#utility.yul\":3709:3743   */\n      mstore\n        /* \"#utility.yul\":3640:3749   */\n      pop\n      pop\n      jump\t// out\n        /* \"#utility.yul\":3755:4506   */\n    tag_30:\n        /* \"#utility.yul\":3976:3980   */\n      0x00\n        /* \"#utility.yul\":4014:4017   */\n      0xc0\n        /* \"#utility.yul\":4003:4012   */\n      dup3\n        /* \"#utility.yul\":3999:4018   */\n      add\n        /* \"#utility.yul\":3991:4018   */\n      swap1\n      pop\n        /* \"#utility.yul\":4028:4099   */\n      tag_255\n        /* \"#utility.yul\":4096:4097   */\n      0x00\n        /* \"#utility.yul\":4085:4094   */\n      dup4\n        /* \"#utility.yul\":4081:4098   */\n      add\n        /* \"#utility.yul\":4072:4078   */\n      dup10\n        /* \"#utility.yul\":4028:4099   */\n      tag_188\n      jump\t// in\n    tag_255:\n        /* \"#utility.yul\":4109:4181   */\n      tag_256\n        /* \"#utility.yul\":4177:4179   */\n      0x20\n        /* \"#utility.yul\":4166:4175   */\n      dup4\n        /* \"#utility.yul\":4162:4180   */\n      add\n        /* \"#utility.yul\":4153:4159   */\n      dup9\n        /* \"#utility.yul\":4109:4181   */\n      tag_188\n      jump\t// in\n    tag_256:\n        /* \"#utility.yul\":4191:4263   */\n      tag_257\n        /* \"#utility.yul\":4259:4261   */\n      0x40\n        /* \"#utility.yul\":4248:4257   */\n      dup4\n        /* \"#utility.yul\":4244:4262   */\n      add\n        /* \"#utility.yul\":4235:4241   */\n      dup8\n        /* \"#utility.yul\":4191:4263   */\n      tag_188\n      jump\t// in\n    tag_257:\n        /* \"#utility.yul\":4273:4345   */\n      tag_258\n        /* \"#utility.yul\":4341:4343   */\n      0x60\n        /* \"#utility.yul\":4330:4339   */\n      dup4\n        /* \"#utility.yul\":4326:4344   */\n      add\n        /* \"#utility.yul\":4317:4323   */\n      dup7\n        /* \"#utility.yul\":4273:4345   */\n      tag_184\n      jump\t// in\n    tag_258:\n        /* \"#utility.yul\":4355:4422   */\n      tag_259\n        /* \"#utility.yul\":4417:4420   */\n      0x80\n        /* \"#utility.yul\":4406:4415   */\n      dup4\n        /* \"#utility.yul\":4402:4421   */\n      add\n        /* \"#utility.yul\":4393:4399   */\n      dup6\n        /* \"#utility.yul\":4355:4422   */\n      tag_190\n      jump\t// in\n    tag_259:\n        /* \"#utility.yul\":4432:4499   */\n      tag_260\n        /* \"#utility.yul\":4494:4497   */\n      0xa0\n        /* \"#utility.yul\":4483:4492   */\n      dup4\n        /* \"#utility.yul\":4479:4498   */\n      add\n        /* \"#utility.yul\":4470:4476   */\n      dup5\n        /* \"#utility.yul\":4432:4499   */\n      tag_190\n      jump\t// in\n    tag_260:\n        /* \"#utility.yul\":3755:4506   */\n      swap8\n      swap7\n      pop\n      pop\n      pop\n      pop\n      pop\n      pop\n      pop\n      jump\t// out\n        /* \"#utility.yul\":4512:4692   */\n    tag_191:\n        /* \"#utility.yul\":4560:4637   */\n      0x4e487b7100000000000000000000000000000000000000000000000000000000\n        /* \"#utility.yul\":4557:4558   */\n      0x00\n        /* \"#utility.yul\":4550:4638   */\n      mstore\n        /* \"#utility.yul\":4657:4661   */\n      0x11\n        /* \"#utility.yul\":4654:4655   */\n      0x04\n        /* \"#utility.yul\":4647:4662   */\n      mstore\n        /* \"#utility.yul\":4681:4685   */\n      0x24\n        /* \"#utility.yul\":4678:4679   */\n      0x00\n        /* \"#utility.yul\":4671:4686   */\n      revert\n        /* \"#utility.yul\":4698:4892   */\n    tag_34:\n        /* \"#utility.yul\":4738:4742   */\n      0x00\n        /* \"#utility.yul\":4758:4778   */\n      tag_263\n        /* \"#utility.yul\":4776:4777   */\n      dup3\n        /* \"#utility.yul\":4758:4778   */\n      tag_181\n      jump\t// in\n    tag_263:\n        /* \"#utility.yul\":4753:4778   */\n      swap2\n      pop\n        /* \"#utility.yul\":4792:4812   */\n      tag_264\n        /* \"#utility.yul\":4810:4811   */\n      dup4\n        /* \"#utility.yul\":4792:4812   */\n      tag_181\n      jump\t// in\n    tag_264:\n        /* \"#utility.yul\":4787:4812   */\n      swap3\n      pop\n        /* \"#utility.yul\":4836:4837   */\n      dup3\n        /* \"#utility.yul\":4833:4834   */\n      dup3\n        /* \"#utility.yul\":4829:4838   */\n      sub\n        /* \"#utility.yul\":4821:4838   */\n      swap1\n      pop\n        /* \"#utility.yul\":4860:4861   */\n      dup2\n        /* \"#utility.yul\":4854:4858   */\n      dup2\n        /* \"#utility.yul\":4851:4862   */\n      gt\n        /* \"#utility.yul\":4848:4885   */\n      iszero\n      tag_265\n      jumpi\n        /* \"#utility.yul\":4865:4883   */\n      tag_266\n      tag_191\n      jump\t// in\n    tag_266:\n        /* \"#utility.yul\":4848:4885   */\n    tag_265:\n        /* \"#utility.yul\":4698:4892   */\n      swap3\n      swap2\n      pop\n      pop\n      jump\t// out\n        /* \"#utility.yul\":4898:5078   */\n    tag_38:\n        /* \"#utility.yul\":4946:5023   */\n      0x4e487b7100000000000000000000000000000000000000000000000000000000\n        /* \"#utility.yul\":4943:4944   */\n      0x00\n        /* \"#utility.yul\":4936:5024   */\n      mstore\n        /* \"#utility.yul\":5043:5047   */\n      0x32\n        /* \"#utility.yul\":5040:5041   */\n      0x04\n        /* \"#utility.yul\":5033:5048   */\n      mstore\n        /* \"#utility.yul\":5067:5071   */\n      0x24\n        /* \"#utility.yul\":5064:5065   */\n      0x00\n        /* \"#utility.yul\":5057:5072   */\n      revert\n        /* \"#utility.yul\":5084:5253   */\n    tag_192:\n        /* \"#utility.yul\":5168:5179   */\n      0x00\n        /* \"#utility.yul\":5202:5208   */\n      dup3\n        /* \"#utility.yul\":5197:5200   */\n      dup3\n        /* \"#utility.yul\":5190:5209   */\n      mstore\n        /* \"#utility.yul\":5242:5246   */\n      0x20\n        /* \"#utility.yul\":5237:5240   */\n      dup3\n        /* \"#utility.yul\":5233:5247   */\n      add\n        /* \"#utility.yul\":5218:5247   */\n      swap1\n      pop\n        /* \"#utility.yul\":5084:5253   */\n      swap3\n      swap2\n      pop\n      pop\n      jump\t// out\n        /* \"#utility.yul\":5259:5492   */\n    tag_193:\n        /* \"#utility.yul\":5399:5433   */\n      0x546865206465706f7369742069732061636365707461626c65206279206f6e6c\n        /* \"#utility.yul\":5395:5396   */\n      0x00\n        /* \"#utility.yul\":5387:5393   */\n      dup3\n        /* \"#utility.yul\":5383:5397   */\n      add\n        /* \"#utility.yul\":5376:5434   */\n      mstore\n        /* \"#utility.yul\":5468:5484   */\n      0x792074686520706c61796572732e000000000000000000000000000000000000\n        /* \"#utility.yul\":5463:5465   */\n      0x20\n        /* \"#utility.yul\":5455:5461   */\n      dup3\n        /* \"#utility.yul\":5451:5466   */\n      add\n        /* \"#utility.yul\":5444:5485   */\n      mstore\n        /* \"#utility.yul\":5259:5492   */\n      pop\n      jump\t// out\n        /* \"#utility.yul\":5498:5864   */\n    tag_194:\n        /* \"#utility.yul\":5640:5643   */\n      0x00\n        /* \"#utility.yul\":5661:5728   */\n      tag_271\n        /* \"#utility.yul\":5725:5727   */\n      0x2e\n        /* \"#utility.yul\":5720:5723   */\n      dup4\n        /* \"#utility.yul\":5661:5728   */\n      tag_192\n      jump\t// in\n    tag_271:\n        /* \"#utility.yul\":5654:5728   */\n      swap2\n      pop\n        /* \"#utility.yul\":5737:5830   */\n      tag_272\n        /* \"#utility.yul\":5826:5829   */\n      dup3\n        /* \"#utility.yul\":5737:5830   */\n      tag_193\n      jump\t// in\n    tag_272:\n        /* \"#utility.yul\":5855:5857   */\n      0x40\n        /* \"#utility.yul\":5850:5853   */\n      dup3\n        /* \"#utility.yul\":5846:5858   */\n      add\n        /* \"#utility.yul\":5839:5858   */\n      swap1\n      pop\n        /* \"#utility.yul\":5498:5864   */\n      swap2\n      swap1\n      pop\n      jump\t// out\n        /* \"#utility.yul\":5870:6289   */\n    tag_46:\n        /* \"#utility.yul\":6036:6040   */\n      0x00\n        /* \"#utility.yul\":6074:6076   */\n      0x20\n        /* \"#utility.yul\":6063:6072   */\n      dup3\n        /* \"#utility.yul\":6059:6077   */\n      add\n        /* \"#utility.yul\":6051:6077   */\n      swap1\n      pop\n        /* \"#utility.yul\":6123:6132   */\n      dup2\n        /* \"#utility.yul\":6117:6121   */\n      dup2\n        /* \"#utility.yul\":6113:6133   */\n      sub\n        /* \"#utility.yul\":6109:6110   */\n      0x00\n        /* \"#utility.yul\":6098:6107   */\n      dup4\n        /* \"#utility.yul\":6094:6111   */\n      add\n        /* \"#utility.yul\":6087:6134   */\n      mstore\n        /* \"#utility.yul\":6151:6282   */\n      tag_274\n        /* \"#utility.yul\":6277:6281   */\n      dup2\n        /* \"#utility.yul\":6151:6282   */\n      tag_194\n      jump\t// in\n    tag_274:\n        /* \"#utility.yul\":6143:6282   */\n      swap1\n      pop\n        /* \"#utility.yul\":5870:6289   */\n      swap2\n      swap1\n      pop\n      jump\t// out\n        /* \"#utility.yul\":6295:6467   */\n    tag_195:\n        /* \"#utility.yul\":6435:6459   */\n      0x596f752068617665206e6f742070616964207965742e00000000000000000000\n        /* \"#utility.yul\":6431:6432   */\n      0x00\n        /* \"#utility.yul\":6423:6429   */\n      dup3\n        /* \"#utility.yul\":6419:6433   */\n      add\n        /* \"#utility.yul\":6412:6460   */\n      mstore\n        /* \"#utility.yul\":6295:6467   */\n      pop\n      jump\t// out\n        /* \"#utility.yul\":6473:6839   */\n    tag_196:\n        /* \"#utility.yul\":6615:6618   */\n      0x00\n        /* \"#utility.yul\":6636:6703   */\n      tag_277\n        /* \"#utility.yul\":6700:6702   */\n      0x16\n        /* \"#utility.yul\":6695:6698   */\n      dup4\n        /* \"#utility.yul\":6636:6703   */\n      tag_192\n      jump\t// in\n    tag_277:\n        /* \"#utility.yul\":6629:6703   */\n      swap2\n      pop\n        /* \"#utility.yul\":6712:6805   */\n      tag_278\n        /* \"#utility.yul\":6801:6804   */\n      dup3\n        /* \"#utility.yul\":6712:6805   */\n      tag_195\n      jump\t// in\n    tag_278:\n        /* \"#utility.yul\":6830:6832   */\n      0x20\n        /* \"#utility.yul\":6825:6828   */\n      dup3\n        /* \"#utility.yul\":6821:6833   */\n      add\n        /* \"#utility.yul\":6814:6833   */\n      swap1\n      pop\n        /* \"#utility.yul\":6473:6839   */\n      swap2\n      swap1\n      pop\n      jump\t// out\n        /* \"#utility.yul\":6845:7264   */\n    tag_57:\n        /* \"#utility.yul\":7011:7015   */\n      0x00\n        /* \"#utility.yul\":7049:7051   */\n      0x20\n        /* \"#utility.yul\":7038:7047   */\n      dup3\n        /* \"#utility.yul\":7034:7052   */\n      add\n        /* \"#utility.yul\":7026:7052   */\n      swap1\n      pop\n        /* \"#utility.yul\":7098:7107   */\n      dup2\n        /* \"#utility.yul\":7092:7096   */\n      dup2\n        /* \"#utility.yul\":7088:7108   */\n      sub\n        /* \"#utility.yul\":7084:7085   */\n      0x00\n        /* \"#utility.yul\":7073:7082   */\n      dup4\n        /* \"#utility.yul\":7069:7086   */\n      add\n        /* \"#utility.yul\":7062:7109   */\n      mstore\n        /* \"#utility.yul\":7126:7257   */\n      tag_280\n        /* \"#utility.yul\":7252:7256   */\n      dup2\n        /* \"#utility.yul\":7126:7257   */\n      tag_196\n      jump\t// in\n    tag_280:\n        /* \"#utility.yul\":7118:7257   */\n      swap1\n      pop\n        /* \"#utility.yul\":6845:7264   */\n      swap2\n      swap1\n      pop\n      jump\t// out\n        /* \"#utility.yul\":7270:7495   */\n    tag_197:\n        /* \"#utility.yul\":7410:7444   */\n      0x546869732063616e206f6e6c7920626520646f6e6520627920746865204f6666\n        /* \"#utility.yul\":7406:7407   */\n      0x00\n        /* \"#utility.yul\":7398:7404   */\n      dup3\n        /* \"#utility.yul\":7394:7408   */\n      add\n        /* \"#utility.yul\":7387:7445   */\n      mstore\n        /* \"#utility.yul\":7479:7487   */\n      0x696369616c2e0000000000000000000000000000000000000000000000000000\n        /* \"#utility.yul\":7474:7476   */\n      0x20\n        /* \"#utility.yul\":7466:7472   */\n      dup3\n        /* \"#utility.yul\":7462:7477   */\n      add\n        /* \"#utility.yul\":7455:7488   */\n      mstore\n        /* \"#utility.yul\":7270:7495   */\n      pop\n      jump\t// out\n        /* \"#utility.yul\":7501:7867   */\n    tag_198:\n        /* \"#utility.yul\":7643:7646   */\n      0x00\n        /* \"#utility.yul\":7664:7731   */\n      tag_283\n        /* \"#utility.yul\":7728:7730   */\n      0x26\n        /* \"#utility.yul\":7723:7726   */\n      dup4\n        /* \"#utility.yul\":7664:7731   */\n      tag_192\n      jump\t// in\n    tag_283:\n        /* \"#utility.yul\":7657:7731   */\n      swap2\n      pop\n        /* \"#utility.yul\":7740:7833   */\n      tag_284\n        /* \"#utility.yul\":7829:7832   */\n      dup3\n        /* \"#utility.yul\":7740:7833   */\n      tag_197\n      jump\t// in\n    tag_284:\n        /* \"#utility.yul\":7858:7860   */\n      0x40\n        /* \"#utility.yul\":7853:7856   */\n      dup3\n        /* \"#utility.yul\":7849:7861   */\n      add\n        /* \"#utility.yul\":7842:7861   */\n      swap1\n      pop\n        /* \"#utility.yul\":7501:7867   */\n      swap2\n      swap1\n      pop\n      jump\t// out\n        /* \"#utility.yul\":7873:8292   */\n    tag_95:\n        /* \"#utility.yul\":8039:8043   */\n      0x00\n        /* \"#utility.yul\":8077:8079   */\n      0x20\n        /* \"#utility.yul\":8066:8075   */\n      dup3\n        /* \"#utility.yul\":8062:8080   */\n      add\n        /* \"#utility.yul\":8054:8080   */\n      swap1\n      pop\n        /* \"#utility.yul\":8126:8135   */\n      dup2\n        /* \"#utility.yul\":8120:8124   */\n      dup2\n        /* \"#utility.yul\":8116:8136   */\n      sub\n        /* \"#utility.yul\":8112:8113   */\n      0x00\n        /* \"#utility.yul\":8101:8110   */\n      dup4\n        /* \"#utility.yul\":8097:8114   */\n      add\n        /* \"#utility.yul\":8090:8137   */\n      mstore\n        /* \"#utility.yul\":8154:8285   */\n      tag_286\n        /* \"#utility.yul\":8280:8284   */\n      dup2\n        /* \"#utility.yul\":8154:8285   */\n      tag_198\n      jump\t// in\n    tag_286:\n        /* \"#utility.yul\":8146:8285   */\n      swap1\n      pop\n        /* \"#utility.yul\":7873:8292   */\n      swap2\n      swap1\n      pop\n      jump\t// out\n        /* \"#utility.yul\":8298:8473   */\n    tag_199:\n        /* \"#utility.yul\":8438:8465   */\n      0x506c617965723120686173206e6f742070616964207965742e00000000000000\n        /* \"#utility.yul\":8434:8435   */\n      0x00\n        /* \"#utility.yul\":8426:8432   */\n      dup3\n        /* \"#utility.yul\":8422:8436   */\n      add\n        /* \"#utility.yul\":8415:8466   */\n      mstore\n        /* \"#utility.yul\":8298:8473   */\n      pop\n      jump\t// out\n        /* \"#utility.yul\":8479:8845   */\n    tag_200:\n        /* \"#utility.yul\":8621:8624   */\n      0x00\n        /* \"#utility.yul\":8642:8709   */\n      tag_289\n        /* \"#utility.yul\":8706:8708   */\n      0x19\n        /* \"#utility.yul\":8701:8704   */\n      dup4\n        /* \"#utility.yul\":8642:8709   */\n      tag_192\n      jump\t// in\n    tag_289:\n        /* \"#utility.yul\":8635:8709   */\n      swap2\n      pop\n        /* \"#utility.yul\":8718:8811   */\n      tag_290\n        /* \"#utility.yul\":8807:8810   */\n      dup3\n        /* \"#utility.yul\":8718:8811   */\n      tag_199\n      jump\t// in\n    tag_290:\n        /* \"#utility.yul\":8836:8838   */\n      0x20\n        /* \"#utility.yul\":8831:8834   */\n      dup3\n        /* \"#utility.yul\":8827:8839   */\n      add\n        /* \"#utility.yul\":8820:8839   */\n      swap1\n      pop\n        /* \"#utility.yul\":8479:8845   */\n      swap2\n      swap1\n      pop\n      jump\t// out\n        /* \"#utility.yul\":8851:9270   */\n    tag_106:\n        /* \"#utility.yul\":9017:9021   */\n      0x00\n        /* \"#utility.yul\":9055:9057   */\n      0x20\n        /* \"#utility.yul\":9044:9053   */\n      dup3\n        /* \"#utility.yul\":9040:9058   */\n      add\n        /* \"#utility.yul\":9032:9058   */\n      swap1\n      pop\n        /* \"#utility.yul\":9104:9113   */\n      dup2\n        /* \"#utility.yul\":9098:9102   */\n      dup2\n        /* \"#utility.yul\":9094:9114   */\n      sub\n        /* \"#utility.yul\":9090:9091   */\n      0x00\n        /* \"#utility.yul\":9079:9088   */\n      dup4\n        /* \"#utility.yul\":9075:9092   */\n      add\n        /* \"#utility.yul\":9068:9115   */\n      mstore\n        /* \"#utility.yul\":9132:9263   */\n      tag_292\n        /* \"#utility.yul\":9258:9262   */\n      dup2\n        /* \"#utility.yul\":9132:9263   */\n      tag_200\n      jump\t// in\n    tag_292:\n        /* \"#utility.yul\":9124:9263   */\n      swap1\n      pop\n        /* \"#utility.yul\":8851:9270   */\n      swap2\n      swap1\n      pop\n      jump\t// out\n        /* \"#utility.yul\":9276:9686   */\n    tag_114:\n        /* \"#utility.yul\":9316:9323   */\n      0x00\n        /* \"#utility.yul\":9339:9359   */\n      tag_294\n        /* \"#utility.yul\":9357:9358   */\n      dup3\n        /* \"#utility.yul\":9339:9359   */\n      tag_181\n      jump\t// in\n    tag_294:\n        /* \"#utility.yul\":9334:9359   */\n      swap2\n      pop\n        /* \"#utility.yul\":9373:9393   */\n      tag_295\n        /* \"#utility.yul\":9391:9392   */\n      dup4\n        /* \"#utility.yul\":9373:9393   */\n      tag_181\n      jump\t// in\n    tag_295:\n        /* \"#utility.yul\":9368:9393   */\n      swap3\n      pop\n        /* \"#utility.yul\":9428:9429   */\n      dup3\n        /* \"#utility.yul\":9425:9426   */\n      dup3\n        /* \"#utility.yul\":9421:9430   */\n      mul\n        /* \"#utility.yul\":9450:9480   */\n      tag_296\n        /* \"#utility.yul\":9468:9479   */\n      dup2\n        /* \"#utility.yul\":9450:9480   */\n      tag_181\n      jump\t// in\n    tag_296:\n        /* \"#utility.yul\":9439:9480   */\n      swap2\n      pop\n        /* \"#utility.yul\":9629:9630   */\n      dup3\n        /* \"#utility.yul\":9620:9627   */\n      dup3\n        /* \"#utility.yul\":9616:9631   */\n      div\n        /* \"#utility.yul\":9613:9614   */\n      dup5\n        /* \"#utility.yul\":9610:9632   */\n      eq\n        /* \"#utility.yul\":9590:9591   */\n      dup4\n        /* \"#utility.yul\":9583:9592   */\n      iszero\n        /* \"#utility.yul\":9563:9646   */\n      or\n        /* \"#utility.yul\":9540:9679   */\n      tag_297\n      jumpi\n        /* \"#utility.yul\":9659:9677   */\n      tag_298\n      tag_191\n      jump\t// in\n    tag_298:\n        /* \"#utility.yul\":9540:9679   */\n    tag_297:\n        /* \"#utility.yul\":9324:9686   */\n      pop\n        /* \"#utility.yul\":9276:9686   */\n      swap3\n      swap2\n      pop\n      pop\n      jump\t// out\n        /* \"#utility.yul\":9692:9867   */\n    tag_201:\n        /* \"#utility.yul\":9832:9859   */\n      0x506c617965723220686173206e6f742070616964207965742e00000000000000\n        /* \"#utility.yul\":9828:9829   */\n      0x00\n        /* \"#utility.yul\":9820:9826   */\n      dup3\n        /* \"#utility.yul\":9816:9830   */\n      add\n        /* \"#utility.yul\":9809:9860   */\n      mstore\n        /* \"#utility.yul\":9692:9867   */\n      pop\n      jump\t// out\n        /* \"#utility.yul\":9873:10239   */\n    tag_202:\n        /* \"#utility.yul\":10015:10018   */\n      0x00\n        /* \"#utility.yul\":10036:10103   */\n      tag_301\n        /* \"#utility.yul\":10100:10102   */\n      0x19\n        /* \"#utility.yul\":10095:10098   */\n      dup4\n        /* \"#utility.yul\":10036:10103   */\n      tag_192\n      jump\t// in\n    tag_301:\n        /* \"#utility.yul\":10029:10103   */\n      swap2\n      pop\n        /* \"#utility.yul\":10112:10205   */\n      tag_302\n        /* \"#utility.yul\":10201:10204   */\n      dup3\n        /* \"#utility.yul\":10112:10205   */\n      tag_201\n      jump\t// in\n    tag_302:\n        /* \"#utility.yul\":10230:10232   */\n      0x20\n        /* \"#utility.yul\":10225:10228   */\n      dup3\n        /* \"#utility.yul\":10221:10233   */\n      add\n        /* \"#utility.yul\":10214:10233   */\n      swap1\n      pop\n        /* \"#utility.yul\":9873:10239   */\n      swap2\n      swap1\n      pop\n      jump\t// out\n        /* \"#utility.yul\":10245:10664   */\n    tag_126:\n        /* \"#utility.yul\":10411:10415   */\n      0x00\n        /* \"#utility.yul\":10449:10451   */\n      0x20\n        /* \"#utility.yul\":10438:10447   */\n      dup3\n        /* \"#utility.yul\":10434:10452   */\n      add\n        /* \"#utility.yul\":10426:10452   */\n      swap1\n      pop\n        /* \"#utility.yul\":10498:10507   */\n      dup2\n        /* \"#utility.yul\":10492:10496   */\n      dup2\n        /* \"#utility.yul\":10488:10508   */\n      sub\n        /* \"#utility.yul\":10484:10485   */\n      0x00\n        /* \"#utility.yul\":10473:10482   */\n      dup4\n        /* \"#utility.yul\":10469:10486   */\n      add\n        /* \"#utility.yul\":10462:10509   */\n      mstore\n        /* \"#utility.yul\":10526:10657   */\n      tag_304\n        /* \"#utility.yul\":10652:10656   */\n      dup2\n        /* \"#utility.yul\":10526:10657   */\n      tag_202\n      jump\t// in\n    tag_304:\n        /* \"#utility.yul\":10518:10657   */\n      swap1\n      pop\n        /* \"#utility.yul\":10245:10664   */\n      swap2\n      swap1\n      pop\n      jump\t// out\n        /* \"#utility.yul\":10670:10851   */\n    tag_203:\n        /* \"#utility.yul\":10810:10843   */\n      0x416d6f756e74206973206e6f742061732070657220746865207465726d732e00\n        /* \"#utility.yul\":10806:10807   */\n      0x00\n        /* \"#utility.yul\":10798:10804   */\n      dup3\n        /* \"#utility.yul\":10794:10808   */\n      add\n        /* \"#utility.yul\":10787:10844   */\n      mstore\n        /* \"#utility.yul\":10670:10851   */\n      pop\n      jump\t// out\n        /* \"#utility.yul\":10857:11223   */\n    tag_204:\n        /* \"#utility.yul\":10999:11002   */\n      0x00\n        /* \"#utility.yul\":11020:11087   */\n      tag_307\n        /* \"#utility.yul\":11084:11086   */\n      0x1f\n        /* \"#utility.yul\":11079:11082   */\n      dup4\n        /* \"#utility.yul\":11020:11087   */\n      tag_192\n      jump\t// in\n    tag_307:\n        /* \"#utility.yul\":11013:11087   */\n      swap2\n      pop\n        /* \"#utility.yul\":11096:11189   */\n      tag_308\n        /* \"#utility.yul\":11185:11188   */\n      dup3\n        /* \"#utility.yul\":11096:11189   */\n      tag_203\n      jump\t// in\n    tag_308:\n        /* \"#utility.yul\":11214:11216   */\n      0x20\n        /* \"#utility.yul\":11209:11212   */\n      dup3\n        /* \"#utility.yul\":11205:11217   */\n      add\n        /* \"#utility.yul\":11198:11217   */\n      swap1\n      pop\n        /* \"#utility.yul\":10857:11223   */\n      swap2\n      swap1\n      pop\n      jump\t// out\n        /* \"#utility.yul\":11229:11648   */\n    tag_156:\n        /* \"#utility.yul\":11395:11399   */\n      0x00\n        /* \"#utility.yul\":11433:11435   */\n      0x20\n        /* \"#utility.yul\":11422:11431   */\n      dup3\n        /* \"#utility.yul\":11418:11436   */\n      add\n        /* \"#utility.yul\":11410:11436   */\n      swap1\n      pop\n        /* \"#utility.yul\":11482:11491   */\n      dup2\n        /* \"#utility.yul\":11476:11480   */\n      dup2\n        /* \"#utility.yul\":11472:11492   */\n      sub\n        /* \"#utility.yul\":11468:11469   */\n      0x00\n        /* \"#utility.yul\":11457:11466   */\n      dup4\n        /* \"#utility.yul\":11453:11470   */\n      add\n        /* \"#utility.yul\":11446:11493   */\n      mstore\n        /* \"#utility.yul\":11510:11641   */\n      tag_310\n        /* \"#utility.yul\":11636:11640   */\n      dup2\n        /* \"#utility.yul\":11510:11641   */\n      tag_204\n      jump\t// in\n    tag_310:\n        /* \"#utility.yul\":11502:11641   */\n      swap1\n      pop\n        /* \"#utility.yul\":11229:11648   */\n      swap2\n      swap1\n      pop\n      jump\t// out\n\n    auxdata: 0xa264697066735822122006a800c5e0eda0b1db72232821ae9d2e6e8b8ccada75edbdf1e6e0e2693718dc64736f6c634300081a0033\n}\n",
				"bytecode": {
					"linkReferences": {},
					"object": "6080604052348015600e575f80fd5b5061158f8061001c5f395ff3fe608060405260043610610049575f3560e01c806313c7f4661461004d578063278ecde114610089578063768038c3146100a5578063b6b55f25146100c1578063bd14de96146100dd575b5f80fd5b348015610058575f80fd5b50610073600480360381019061006e919061101b565b61011e565b604051610080919061107a565b60405180910390f35b6100a3600480360381019061009e9190611093565b6102ee565b005b6100bf60048036038101906100ba91906110f9565b61079e565b005b6100db60048036038101906100d69190611093565b610b7e565b005b3480156100e8575f80fd5b5061010360048036038101906100fe9190611093565b610ece565b60405161011596959493929190611160565b60405180910390f35b5f806040518060c001604052808673ffffffffffffffffffffffffffffffffffffffff1681526020018573ffffffffffffffffffffffffffffffffffffffff1681526020013373ffffffffffffffffffffffffffffffffffffffff1681526020018481526020015f151581526020015f1515815250908060018154018082558091505060019003905f5260205f2090600502015f909190919091505f820151815f015f6101000a81548173ffffffffffffffffffffffffffffffffffffffff021916908373ffffffffffffffffffffffffffffffffffffffff1602179055506020820151816001015f6101000a81548173ffffffffffffffffffffffffffffffffffffffff021916908373ffffffffffffffffffffffffffffffffffffffff1602179055506040820151816002015f6101000a81548173ffffffffffffffffffffffffffffffffffffffff021916908373ffffffffffffffffffffffffffffffffffffffff160217905550606082015181600301556080820151816004015f6101000a81548160ff02191690831515021790555060a08201518160040160016101000a81548160ff021916908315150217905550505060015f805490506102e591906111ec565b90509392505050565b805f81815481106103025761030161121f565b5b905f5260205f2090600502015f015f9054906101000a900473ffffffffffffffffffffffffffffffffffffffff1673ffffffffffffffffffffffffffffffffffffffff163373ffffffffffffffffffffffffffffffffffffffff1614806103d557505f81815481106103775761037661121f565b5b905f5260205f2090600502016001015f9054906101000a900473ffffffffffffffffffffffffffffffffffffffff1673ffffffffffffffffffffffffffffffffffffffff163373ffffffffffffffffffffffffffffffffffffffff16145b610414576040517f08c379a000000000000000000000000000000000000000000000000000000000815260040161040b906112cc565b60405180910390fd5b5f82815481106104275761042661121f565b5b905f5260205f2090600502015f015f9054906101000a900473ffffffffffffffffffffffffffffffffffffffff1673ffffffffffffffffffffffffffffffffffffffff163373ffffffffffffffffffffffffffffffffffffffff16036105d5575f828154811061049a5761049961121f565b5b905f5260205f2090600502016004015f9054906101000a900460ff166104f5576040517f08c379a00000000000000000000000000000000000000000000000000000000081526004016104ec90611334565b60405180910390fd5b5f8083815481106105095761050861121f565b5b905f5260205f2090600502016004015f6101000a81548160ff0219169083151502179055505f82815481106105415761054061121f565b5b905f5260205f2090600502015f015f9054906101000a900473ffffffffffffffffffffffffffffffffffffffff1673ffffffffffffffffffffffffffffffffffffffff166108fc5f848154811061059b5761059a61121f565b5b905f5260205f2090600502016003015490811502906040515f60405180830381858888f193505050501580156105d3573d5f803e3d5ffd5b505b5f82815481106105e8576105e761121f565b5b905f5260205f2090600502016001015f9054906101000a900473ffffffffffffffffffffffffffffffffffffffff1673ffffffffffffffffffffffffffffffffffffffff163373ffffffffffffffffffffffffffffffffffffffff160361079a575f828154811061065c5761065b61121f565b5b905f5260205f20906005020160040160019054906101000a900460ff166106b8576040517f08c379a00000000000000000000000000000000000000000000000000000000081526004016106af90611334565b60405180910390fd5b5f8083815481106106cc576106cb61121f565b5b905f5260205f20906005020160040160016101000a81548160ff0219169083151502179055505f82815481106107055761070461121f565b5b905f5260205f2090600502016001015f9054906101000a900473ffffffffffffffffffffffffffffffffffffffff1673ffffffffffffffffffffffffffffffffffffffff166108fc5f84815481106107605761075f61121f565b5b905f5260205f2090600502016003015490811502906040515f60405180830381858888f19350505050158015610798573d5f803e3d5ffd5b505b5050565b815f81815481106107b2576107b161121f565b5b905f5260205f2090600502016002015f9054906101000a900473ffffffffffffffffffffffffffffffffffffffff1673ffffffffffffffffffffffffffffffffffffffff163373ffffffffffffffffffffffffffffffffffffffff161461084e576040517f08c379a0000000000000000000000000000000000000000000000000000000008152600401610845906113c2565b60405180910390fd5b5f83815481106108615761086061121f565b5b905f5260205f2090600502015f015f9054906101000a900473ffffffffffffffffffffffffffffffffffffffff1673ffffffffffffffffffffffffffffffffffffffff168273ffffffffffffffffffffffffffffffffffffffff16036109e2575f83815481106108d4576108d361121f565b5b905f5260205f2090600502016004015f9054906101000a900460ff1661092f576040517f08c379a00000000000000000000000000000000000000000000000000000000081526004016109269061142a565b60405180910390fd5b5f83815481106109425761094161121f565b5b905f5260205f2090600502015f015f9054906101000a900473ffffffffffffffffffffffffffffffffffffffff1673ffffffffffffffffffffffffffffffffffffffff166108fc60025f868154811061099e5761099d61121f565b5b905f5260205f209060050201600301546109b89190611448565b90811502906040515f60405180830381858888f193505050501580156109e0573d5f803e3d5ffd5b505b5f83815481106109f5576109f461121f565b5b905f5260205f2090600502016001015f9054906101000a900473ffffffffffffffffffffffffffffffffffffffff1673ffffffffffffffffffffffffffffffffffffffff168273ffffffffffffffffffffffffffffffffffffffff1603610b79575f8381548110610a6957610a6861121f565b5b905f5260205f20906005020160040160019054906101000a900460ff16610ac5576040517f08c379a0000000000000000000000000000000000000000000000000000000008152600401610abc906114d3565b60405180910390fd5b5f8381548110610ad857610ad761121f565b5b905f5260205f2090600502016001015f9054906101000a900473ffffffffffffffffffffffffffffffffffffffff1673ffffffffffffffffffffffffffffffffffffffff166108fc60025f8681548110610b3557610b3461121f565b5b905f5260205f20906005020160030154610b4f9190611448565b90811502906040515f60405180830381858888f19350505050158015610b77573d5f803e3d5ffd5b505b505050565b805f8181548110610b9257610b9161121f565b5b905f5260205f2090600502015f015f9054906101000a900473ffffffffffffffffffffffffffffffffffffffff1673ffffffffffffffffffffffffffffffffffffffff163373ffffffffffffffffffffffffffffffffffffffff161480610c6557505f8181548110610c0757610c0661121f565b5b905f5260205f2090600502016001015f9054906101000a900473ffffffffffffffffffffffffffffffffffffffff1673ffffffffffffffffffffffffffffffffffffffff163373ffffffffffffffffffffffffffffffffffffffff16145b610ca4576040517f08c379a0000000000000000000000000000000000000000000000000000000008152600401610c9b906112cc565b60405180910390fd5b5f8281548110610cb757610cb661121f565b5b905f5260205f2090600502015f015f9054906101000a900473ffffffffffffffffffffffffffffffffffffffff1673ffffffffffffffffffffffffffffffffffffffff163373ffffffffffffffffffffffffffffffffffffffff1603610db6575f8281548110610d2a57610d2961121f565b5b905f5260205f209060050201600301543414610d7b576040517f08c379a0000000000000000000000000000000000000000000000000000000008152600401610d729061153b565b60405180910390fd5b60015f8381548110610d9057610d8f61121f565b5b905f5260205f2090600502016004015f6101000a81548160ff0219169083151502179055505b5f8281548110610dc957610dc861121f565b5b905f5260205f2090600502016001015f9054906101000a900473ffffffffffffffffffffffffffffffffffffffff1673ffffffffffffffffffffffffffffffffffffffff163373ffffffffffffffffffffffffffffffffffffffff1603610eca575f8281548110610e3d57610e3c61121f565b5b905f5260205f209060050201600301543414610e8e576040517f08c379a0000000000000000000000000000000000000000000000000000000008152600401610e859061153b565b60405180910390fd5b60015f8381548110610ea357610ea261121f565b5b905f5260205f20906005020160040160016101000a81548160ff0219169083151502179055505b5050565b5f8181548110610edc575f80fd5b905f5260205f2090600502015f91509050805f015f9054906101000a900473ffffffffffffffffffffffffffffffffffffffff1690806001015f9054906101000a900473ffffffffffffffffffffffffffffffffffffffff1690806002015f9054906101000a900473ffffffffffffffffffffffffffffffffffffffff1690806003015490806004015f9054906101000a900460ff16908060040160019054906101000a900460ff16905086565b5f80fd5b5f73ffffffffffffffffffffffffffffffffffffffff82169050919050565b5f610fb782610f8e565b9050919050565b610fc781610fad565b8114610fd1575f80fd5b50565b5f81359050610fe281610fbe565b92915050565b5f819050919050565b610ffa81610fe8565b8114611004575f80fd5b50565b5f8135905061101581610ff1565b92915050565b5f805f6060848603121561103257611031610f8a565b5b5f61103f86828701610fd4565b935050602061105086828701610fd4565b925050604061106186828701611007565b9150509250925092565b61107481610fe8565b82525050565b5f60208201905061108d5f83018461106b565b92915050565b5f602082840312156110a8576110a7610f8a565b5b5f6110b584828501611007565b91505092915050565b5f6110c882610f8e565b9050919050565b6110d8816110be565b81146110e2575f80fd5b50565b5f813590506110f3816110cf565b92915050565b5f806040838503121561110f5761110e610f8a565b5b5f61111c85828601611007565b925050602061112d858286016110e5565b9150509250929050565b61114081610fad565b82525050565b5f8115159050919050565b61115a81611146565b82525050565b5f60c0820190506111735f830189611137565b6111806020830188611137565b61118d6040830187611137565b61119a606083018661106b565b6111a76080830185611151565b6111b460a0830184611151565b979650505050505050565b7f4e487b71000000000000000000000000000000000000000000000000000000005f52601160045260245ffd5b5f6111f682610fe8565b915061120183610fe8565b9250828203905081811115611219576112186111bf565b5b92915050565b7f4e487b71000000000000000000000000000000000000000000000000000000005f52603260045260245ffd5b5f82825260208201905092915050565b7f546865206465706f7369742069732061636365707461626c65206279206f6e6c5f8201527f792074686520706c61796572732e000000000000000000000000000000000000602082015250565b5f6112b6602e8361124c565b91506112c18261125c565b604082019050919050565b5f6020820190508181035f8301526112e3816112aa565b9050919050565b7f596f752068617665206e6f742070616964207965742e000000000000000000005f82015250565b5f61131e60168361124c565b9150611329826112ea565b602082019050919050565b5f6020820190508181035f83015261134b81611312565b9050919050565b7f546869732063616e206f6e6c7920626520646f6e6520627920746865204f66665f8201527f696369616c2e0000000000000000000000000000000000000000000000000000602082015250565b5f6113ac60268361124c565b91506113b782611352565b604082019050919050565b5f6020820190508181035f8301526113d9816113a0565b9050919050565b7f506c617965723120686173206e6f742070616964207965742e000000000000005f82015250565b5f61141460198361124c565b915061141f826113e0565b602082019050919050565b5f6020820190508181035f83015261144181611408565b9050919050565b5f61145282610fe8565b915061145d83610fe8565b925082820261146b81610fe8565b91508282048414831517611482576114816111bf565b5b5092915050565b7f506c617965723220686173206e6f742070616964207965742e000000000000005f82015250565b5f6114bd60198361124c565b91506114c882611489565b602082019050919050565b5f6020820190508181035f8301526114ea816114b1565b9050919050565b7f416d6f756e74206973206e6f742061732070657220746865207465726d732e005f82015250565b5f611525601f8361124c565b9150611530826114f1565b602082019050919050565b5f6020820190508181035f83015261155281611519565b905091905056fea264697066735822122006a800c5e0eda0b1db72232821ae9d2e6e8b8ccada75edbdf1e6e0e2693718dc64736f6c634300081a0033",
					"opcodes": "PUSH1 0x80 PUSH1 0x40 MSTORE CALLVALUE DUP1 ISZERO PUSH1 0xE JUMPI PUSH0 DUP1 REVERT JUMPDEST POP PUSH2 0x158F DUP1 PUSH2 0x1C PUSH0 CODECOPY PUSH0 RETURN INVALID PUSH1 0x80 PUSH1 0x40 MSTORE PUSH1 0x4 CALLDATASIZE LT PUSH2 0x49 JUMPI PUSH0 CALLDATALOAD PUSH1 0xE0 SHR DUP1 PUSH4 0x13C7F466 EQ PUSH2 0x4D JUMPI DUP1 PUSH4 0x278ECDE1 EQ PUSH2 0x89 JUMPI DUP1 PUSH4 0x768038C3 EQ PUSH2 0xA5 JUMPI DUP1 PUSH4 0xB6B55F25 EQ PUSH2 0xC1 JUMPI DUP1 PUSH4 0xBD14DE96 EQ PUSH2 0xDD JUMPI JUMPDEST PUSH0 DUP1 REVERT JUMPDEST CALLVALUE DUP1 ISZERO PUSH2 0x58 JUMPI PUSH0 DUP1 REVERT JUMPDEST POP PUSH2 0x73 PUSH1 0x4 DUP1 CALLDATASIZE SUB DUP2 ADD SWAP1 PUSH2 0x6E SWAP2 SWAP1 PUSH2 0x101B JUMP JUMPDEST PUSH2 0x11E JUMP JUMPDEST PUSH1 0x40 MLOAD PUSH2 0x80 SWAP2 SWAP1 PUSH2 0x107A JUMP JUMPDEST PUSH1 0x40 MLOAD DUP1 SWAP2 SUB SWAP1 RETURN JUMPDEST PUSH2 0xA3 PUSH1 0x4 DUP1 CALLDATASIZE SUB DUP2 ADD SWAP1 PUSH2 0x9E SWAP2 SWAP1 PUSH2 0x1093 JUMP JUMPDEST PUSH2 0x2EE JUMP JUMPDEST STOP JUMPDEST PUSH2 0xBF PUSH1 0x4 DUP1 CALLDATASIZE SUB DUP2 ADD SWAP1 PUSH2 0xBA SWAP2 SWAP1 PUSH2 0x10F9 JUMP JUMPDEST PUSH2 0x79E JUMP JUMPDEST STOP JUMPDEST PUSH2 0xDB PUSH1 0x4 DUP1 CALLDATASIZE SUB DUP2 ADD SWAP1 PUSH2 0xD6 SWAP2 SWAP1 PUSH2 0x1093 JUMP JUMPDEST PUSH2 0xB7E JUMP JUMPDEST STOP JUMPDEST CALLVALUE DUP1 ISZERO PUSH2 0xE8 JUMPI PUSH0 DUP1 REVERT JUMPDEST POP PUSH2 0x103 PUSH1 0x4 DUP1 CALLDATASIZE SUB DUP2 ADD SWAP1 PUSH2 0xFE SWAP2 SWAP1 PUSH2 0x1093 JUMP JUMPDEST PUSH2 0xECE JUMP JUMPDEST PUSH1 0x40 MLOAD PUSH2 0x115 SWAP7 SWAP6 SWAP5 SWAP4 SWAP3 SWAP2 SWAP1 PUSH2 0x1160 JUMP JUMPDEST PUSH1 0x40 MLOAD DUP1 SWAP2 SUB SWAP1 RETURN JUMPDEST PUSH0 DUP1 PUSH1 0x40 MLOAD DUP1 PUSH1 0xC0 ADD PUSH1 0x40 MSTORE DUP1 DUP7 PUSH20 0xFFFFFFFFFFFFFFFFFFFFFFFFFFFFFFFFFFFFFFFF AND DUP2 MSTORE PUSH1 0x20 ADD DUP6 PUSH20 0xFFFFFFFFFFFFFFFFFFFFFFFFFFFFFFFFFFFFFFFF AND DUP2 MSTORE PUSH1 0x20 ADD CALLER PUSH20 0xFFFFFFFFFFFFFFFFFFFFFFFFFFFFFFFFFFFFFFFF AND DUP2 MSTORE PUSH1 0x20 ADD DUP5 DUP2 MSTORE PUSH1 0x20 ADD PUSH0 ISZERO ISZERO DUP2 MSTORE PUSH1 0x20 ADD PUSH0 ISZERO ISZERO DUP2 MSTORE POP SWAP1 DUP1 PUSH1 0x1 DUP2 SLOAD ADD DUP1 DUP3 SSTORE DUP1 SWAP2 POP POP PUSH1 0x1 SWAP1 SUB SWAP1 PUSH0 MSTORE PUSH1 0x20 PUSH0 KECCAK256 SWAP1 PUSH1 0x5 MUL ADD PUSH0 SWAP1 SWAP2 SWAP1 SWAP2 SWAP1 SWAP2 POP PUSH0 DUP3 ADD MLOAD DUP2 PUSH0 ADD PUSH0 PUSH2 0x100 EXP DUP2 SLOAD DUP2 PUSH20 0xFFFFFFFFFFFFFFFFFFFFFFFFFFFFFFFFFFFFFFFF MUL NOT AND SWAP1 DUP4 PUSH20 0xFFFFFFFFFFFFFFFFFFFFFFFFFFFFFFFFFFFFFFFF AND MUL OR SWAP1 SSTORE POP PUSH1 0x20 DUP3 ADD MLOAD DUP2 PUSH1 0x1 ADD PUSH0 PUSH2 0x100 EXP DUP2 SLOAD DUP2 PUSH20 0xFFFFFFFFFFFFFFFFFFFFFFFFFFFFFFFFFFFFFFFF MUL NOT AND SWAP1 DUP4 PUSH20 0xFFFFFFFFFFFFFFFFFFFFFFFFFFFFFFFFFFFFFFFF AND MUL OR SWAP1 SSTORE POP PUSH1 0x40 DUP3 ADD MLOAD DUP2 PUSH1 0x2 ADD PUSH0 PUSH2 0x100 EXP DUP2 SLOAD DUP2 PUSH20 0xFFFFFFFFFFFFFFFFFFFFFFFFFFFFFFFFFFFFFFFF MUL NOT AND SWAP1 DUP4 PUSH20 0xFFFFFFFFFFFFFFFFFFFFFFFFFFFFFFFFFFFFFFFF AND MUL OR SWAP1 SSTORE POP PUSH1 0x60 DUP3 ADD MLOAD DUP2 PUSH1 0x3 ADD SSTORE PUSH1 0x80 DUP3 ADD MLOAD DUP2 PUSH1 0x4 ADD PUSH0 PUSH2 0x100 EXP DUP2 SLOAD DUP2 PUSH1 0xFF MUL NOT AND SWAP1 DUP4 ISZERO ISZERO MUL OR SWAP1 SSTORE POP PUSH1 0xA0 DUP3 ADD MLOAD DUP2 PUSH1 0x4 ADD PUSH1 0x1 PUSH2 0x100 EXP DUP2 SLOAD DUP2 PUSH1 0xFF MUL NOT AND SWAP1 DUP4 ISZERO ISZERO MUL OR SWAP1 SSTORE POP POP POP PUSH1 0x1 PUSH0 DUP1 SLOAD SWAP1 POP PUSH2 0x2E5 SWAP2 SWAP1 PUSH2 0x11EC JUMP JUMPDEST SWAP1 POP SWAP4 SWAP3 POP POP POP JUMP JUMPDEST DUP1 PUSH0 DUP2 DUP2 SLOAD DUP2 LT PUSH2 0x302 JUMPI PUSH2 0x301 PUSH2 0x121F JUMP JUMPDEST JUMPDEST SWAP1 PUSH0 MSTORE PUSH1 0x20 PUSH0 KECCAK256 SWAP1 PUSH1 0x5 MUL ADD PUSH0 ADD PUSH0 SWAP1 SLOAD SWAP1 PUSH2 0x100 EXP SWAP1 DIV PUSH20 0xFFFFFFFFFFFFFFFFFFFFFFFFFFFFFFFFFFFFFFFF AND PUSH20 0xFFFFFFFFFFFFFFFFFFFFFFFFFFFFFFFFFFFFFFFF AND CALLER PUSH20 0xFFFFFFFFFFFFFFFFFFFFFFFFFFFFFFFFFFFFFFFF AND EQ DUP1 PUSH2 0x3D5 JUMPI POP PUSH0 DUP2 DUP2 SLOAD DUP2 LT PUSH2 0x377 JUMPI PUSH2 0x376 PUSH2 0x121F JUMP JUMPDEST JUMPDEST SWAP1 PUSH0 MSTORE PUSH1 0x20 PUSH0 KECCAK256 SWAP1 PUSH1 0x5 MUL ADD PUSH1 0x1 ADD PUSH0 SWAP1 SLOAD SWAP1 PUSH2 0x100 EXP SWAP1 DIV PUSH20 0xFFFFFFFFFFFFFFFFFFFFFFFFFFFFFFFFFFFFFFFF AND PUSH20 0xFFFFFFFFFFFFFFFFFFFFFFFFFFFFFFFFFFFFFFFF AND CALLER PUSH20 0xFFFFFFFFFFFFFFFFFFFFFFFFFFFFFFFFFFFFFFFF AND EQ JUMPDEST PUSH2 0x414 JUMPI PUSH1 0x40 MLOAD PUSH32 0x8C379A000000000000000000000000000000000000000000000000000000000 DUP2 MSTORE PUSH1 0x4 ADD PUSH2 0x40B SWAP1 PUSH2 0x12CC JUMP JUMPDEST PUSH1 0x40 MLOAD DUP1 SWAP2 SUB SWAP1 REVERT JUMPDEST PUSH0 DUP3 DUP2 SLOAD DUP2 LT PUSH2 0x427 JUMPI PUSH2 0x426 PUSH2 0x121F JUMP JUMPDEST JUMPDEST SWAP1 PUSH0 MSTORE PUSH1 0x20 PUSH0 KECCAK256 SWAP1 PUSH1 0x5 MUL ADD PUSH0 ADD PUSH0 SWAP1 SLOAD SWAP1 PUSH2 0x100 EXP SWAP1 DIV PUSH20 0xFFFFFFFFFFFFFFFFFFFFFFFFFFFFFFFFFFFFFFFF AND PUSH20 0xFFFFFFFFFFFFFFFFFFFFFFFFFFFFFFFFFFFFFFFF AND CALLER PUSH20 0xFFFFFFFFFFFFFFFFFFFFFFFFFFFFFFFFFFFFFFFF AND SUB PUSH2 0x5D5 JUMPI PUSH0 DUP3 DUP2 SLOAD DUP2 LT PUSH2 0x49A JUMPI PUSH2 0x499 PUSH2 0x121F JUMP JUMPDEST JUMPDEST SWAP1 PUSH0 MSTORE PUSH1 0x20 PUSH0 KECCAK256 SWAP1 PUSH1 0x5 MUL ADD PUSH1 0x4 ADD PUSH0 SWAP1 SLOAD SWAP1 PUSH2 0x100 EXP SWAP1 DIV PUSH1 0xFF AND PUSH2 0x4F5 JUMPI PUSH1 0x40 MLOAD PUSH32 0x8C379A000000000000000000000000000000000000000000000000000000000 DUP2 MSTORE PUSH1 0x4 ADD PUSH2 0x4EC SWAP1 PUSH2 0x1334 JUMP JUMPDEST PUSH1 0x40 MLOAD DUP1 SWAP2 SUB SWAP1 REVERT JUMPDEST PUSH0 DUP1 DUP4 DUP2 SLOAD DUP2 LT PUSH2 0x509 JUMPI PUSH2 0x508 PUSH2 0x121F JUMP JUMPDEST JUMPDEST SWAP1 PUSH0 MSTORE PUSH1 0x20 PUSH0 KECCAK256 SWAP1 PUSH1 0x5 MUL ADD PUSH1 0x4 ADD PUSH0 PUSH2 0x100 EXP DUP2 SLOAD DUP2 PUSH1 0xFF MUL NOT AND SWAP1 DUP4 ISZERO ISZERO MUL OR SWAP1 SSTORE POP PUSH0 DUP3 DUP2 SLOAD DUP2 LT PUSH2 0x541 JUMPI PUSH2 0x540 PUSH2 0x121F JUMP JUMPDEST JUMPDEST SWAP1 PUSH0 MSTORE PUSH1 0x20 PUSH0 KECCAK256 SWAP1 PUSH1 0x5 MUL ADD PUSH0 ADD PUSH0 SWAP1 SLOAD SWAP1 PUSH2 0x100 EXP SWAP1 DIV PUSH20 0xFFFFFFFFFFFFFFFFFFFFFFFFFFFFFFFFFFFFFFFF AND PUSH20 0xFFFFFFFFFFFFFFFFFFFFFFFFFFFFFFFFFFFFFFFF AND PUSH2 0x8FC PUSH0 DUP5 DUP2 SLOAD DUP2 LT PUSH2 0x59B JUMPI PUSH2 0x59A PUSH2 0x121F JUMP JUMPDEST JUMPDEST SWAP1 PUSH0 MSTORE PUSH1 0x20 PUSH0 KECCAK256 SWAP1 PUSH1 0x5 MUL ADD PUSH1 0x3 ADD SLOAD SWAP1 DUP2 ISZERO MUL SWAP1 PUSH1 0x40 MLOAD PUSH0 PUSH1 0x40 MLOAD DUP1 DUP4 SUB DUP2 DUP6 DUP9 DUP9 CALL SWAP4 POP POP POP POP ISZERO DUP1 ISZERO PUSH2 0x5D3 JUMPI RETURNDATASIZE PUSH0 DUP1 RETURNDATACOPY RETURNDATASIZE PUSH0 REVERT JUMPDEST POP JUMPDEST PUSH0 DUP3 DUP2 SLOAD DUP2 LT PUSH2 0x5E8 JUMPI PUSH2 0x5E7 PUSH2 0x121F JUMP JUMPDEST JUMPDEST SWAP1 PUSH0 MSTORE PUSH1 0x20 PUSH0 KECCAK256 SWAP1 PUSH1 0x5 MUL ADD PUSH1 0x1 ADD PUSH0 SWAP1 SLOAD SWAP1 PUSH2 0x100 EXP SWAP1 DIV PUSH20 0xFFFFFFFFFFFFFFFFFFFFFFFFFFFFFFFFFFFFFFFF AND PUSH20 0xFFFFFFFFFFFFFFFFFFFFFFFFFFFFFFFFFFFFFFFF AND CALLER PUSH20 0xFFFFFFFFFFFFFFFFFFFFFFFFFFFFFFFFFFFFFFFF AND SUB PUSH2 0x79A JUMPI PUSH0 DUP3 DUP2 SLOAD DUP2 LT PUSH2 0x65C JUMPI PUSH2 0x65B PUSH2 0x121F JUMP JUMPDEST JUMPDEST SWAP1 PUSH0 MSTORE PUSH1 0x20 PUSH0 KECCAK256 SWAP1 PUSH1 0x5 MUL ADD PUSH1 0x4 ADD PUSH1 0x1 SWAP1 SLOAD SWAP1 PUSH2 0x100 EXP SWAP1 DIV PUSH1 0xFF AND PUSH2 0x6B8 JUMPI PUSH1 0x40 MLOAD PUSH32 0x8C379A000000000000000000000000000000000000000000000000000000000 DUP2 MSTORE PUSH1 0x4 ADD PUSH2 0x6AF SWAP1 PUSH2 0x1334 JUMP JUMPDEST PUSH1 0x40 MLOAD DUP1 SWAP2 SUB SWAP1 REVERT JUMPDEST PUSH0 DUP1 DUP4 DUP2 SLOAD DUP2 LT PUSH2 0x6CC JUMPI PUSH2 0x6CB PUSH2 0x121F JUMP JUMPDEST JUMPDEST SWAP1 PUSH0 MSTORE PUSH1 0x20 PUSH0 KECCAK256 SWAP1 PUSH1 0x5 MUL ADD PUSH1 0x4 ADD PUSH1 0x1 PUSH2 0x100 EXP DUP2 SLOAD DUP2 PUSH1 0xFF MUL NOT AND SWAP1 DUP4 ISZERO ISZERO MUL OR SWAP1 SSTORE POP PUSH0 DUP3 DUP2 SLOAD DUP2 LT PUSH2 0x705 JUMPI PUSH2 0x704 PUSH2 0x121F JUMP JUMPDEST JUMPDEST SWAP1 PUSH0 MSTORE PUSH1 0x20 PUSH0 KECCAK256 SWAP1 PUSH1 0x5 MUL ADD PUSH1 0x1 ADD PUSH0 SWAP1 SLOAD SWAP1 PUSH2 0x100 EXP SWAP1 DIV PUSH20 0xFFFFFFFFFFFFFFFFFFFFFFFFFFFFFFFFFFFFFFFF AND PUSH20 0xFFFFFFFFFFFFFFFFFFFFFFFFFFFFFFFFFFFFFFFF AND PUSH2 0x8FC PUSH0 DUP5 DUP2 SLOAD DUP2 LT PUSH2 0x760 JUMPI PUSH2 0x75F PUSH2 0x121F JUMP JUMPDEST JUMPDEST SWAP1 PUSH0 MSTORE PUSH1 0x20 PUSH0 KECCAK256 SWAP1 PUSH1 0x5 MUL ADD PUSH1 0x3 ADD SLOAD SWAP1 DUP2 ISZERO MUL SWAP1 PUSH1 0x40 MLOAD PUSH0 PUSH1 0x40 MLOAD DUP1 DUP4 SUB DUP2 DUP6 DUP9 DUP9 CALL SWAP4 POP POP POP POP ISZERO DUP1 ISZERO PUSH2 0x798 JUMPI RETURNDATASIZE PUSH0 DUP1 RETURNDATACOPY RETURNDATASIZE PUSH0 REVERT JUMPDEST POP JUMPDEST POP POP JUMP JUMPDEST DUP2 PUSH0 DUP2 DUP2 SLOAD DUP2 LT PUSH2 0x7B2 JUMPI PUSH2 0x7B1 PUSH2 0x121F JUMP JUMPDEST JUMPDEST SWAP1 PUSH0 MSTORE PUSH1 0x20 PUSH0 KECCAK256 SWAP1 PUSH1 0x5 MUL ADD PUSH1 0x2 ADD PUSH0 SWAP1 SLOAD SWAP1 PUSH2 0x100 EXP SWAP1 DIV PUSH20 0xFFFFFFFFFFFFFFFFFFFFFFFFFFFFFFFFFFFFFFFF AND PUSH20 0xFFFFFFFFFFFFFFFFFFFFFFFFFFFFFFFFFFFFFFFF AND CALLER PUSH20 0xFFFFFFFFFFFFFFFFFFFFFFFFFFFFFFFFFFFFFFFF AND EQ PUSH2 0x84E JUMPI PUSH1 0x40 MLOAD PUSH32 0x8C379A000000000000000000000000000000000000000000000000000000000 DUP2 MSTORE PUSH1 0x4 ADD PUSH2 0x845 SWAP1 PUSH2 0x13C2 JUMP JUMPDEST PUSH1 0x40 MLOAD DUP1 SWAP2 SUB SWAP1 REVERT JUMPDEST PUSH0 DUP4 DUP2 SLOAD DUP2 LT PUSH2 0x861 JUMPI PUSH2 0x860 PUSH2 0x121F JUMP JUMPDEST JUMPDEST SWAP1 PUSH0 MSTORE PUSH1 0x20 PUSH0 KECCAK256 SWAP1 PUSH1 0x5 MUL ADD PUSH0 ADD PUSH0 SWAP1 SLOAD SWAP1 PUSH2 0x100 EXP SWAP1 DIV PUSH20 0xFFFFFFFFFFFFFFFFFFFFFFFFFFFFFFFFFFFFFFFF AND PUSH20 0xFFFFFFFFFFFFFFFFFFFFFFFFFFFFFFFFFFFFFFFF AND DUP3 PUSH20 0xFFFFFFFFFFFFFFFFFFFFFFFFFFFFFFFFFFFFFFFF AND SUB PUSH2 0x9E2 JUMPI PUSH0 DUP4 DUP2 SLOAD DUP2 LT PUSH2 0x8D4 JUMPI PUSH2 0x8D3 PUSH2 0x121F JUMP JUMPDEST JUMPDEST SWAP1 PUSH0 MSTORE PUSH1 0x20 PUSH0 KECCAK256 SWAP1 PUSH1 0x5 MUL ADD PUSH1 0x4 ADD PUSH0 SWAP1 SLOAD SWAP1 PUSH2 0x100 EXP SWAP1 DIV PUSH1 0xFF AND PUSH2 0x92F JUMPI PUSH1 0x40 MLOAD PUSH32 0x8C379A000000000000000000000000000000000000000000000000000000000 DUP2 MSTORE PUSH1 0x4 ADD PUSH2 0x926 SWAP1 PUSH2 0x142A JUMP JUMPDEST PUSH1 0x40 MLOAD DUP1 SWAP2 SUB SWAP1 REVERT JUMPDEST PUSH0 DUP4 DUP2 SLOAD DUP2 LT PUSH2 0x942 JUMPI PUSH2 0x941 PUSH2 0x121F JUMP JUMPDEST JUMPDEST SWAP1 PUSH0 MSTORE PUSH1 0x20 PUSH0 KECCAK256 SWAP1 PUSH1 0x5 MUL ADD PUSH0 ADD PUSH0 SWAP1 SLOAD SWAP1 PUSH2 0x100 EXP SWAP1 DIV PUSH20 0xFFFFFFFFFFFFFFFFFFFFFFFFFFFFFFFFFFFFFFFF AND PUSH20 0xFFFFFFFFFFFFFFFFFFFFFFFFFFFFFFFFFFFFFFFF AND PUSH2 0x8FC PUSH1 0x2 PUSH0 DUP7 DUP2 SLOAD DUP2 LT PUSH2 0x99E JUMPI PUSH2 0x99D PUSH2 0x121F JUMP JUMPDEST JUMPDEST SWAP1 PUSH0 MSTORE PUSH1 0x20 PUSH0 KECCAK256 SWAP1 PUSH1 0x5 MUL ADD PUSH1 0x3 ADD SLOAD PUSH2 0x9B8 SWAP2 SWAP1 PUSH2 0x1448 JUMP JUMPDEST SWAP1 DUP2 ISZERO MUL SWAP1 PUSH1 0x40 MLOAD PUSH0 PUSH1 0x40 MLOAD DUP1 DUP4 SUB DUP2 DUP6 DUP9 DUP9 CALL SWAP4 POP POP POP POP ISZERO DUP1 ISZERO PUSH2 0x9E0 JUMPI RETURNDATASIZE PUSH0 DUP1 RETURNDATACOPY RETURNDATASIZE PUSH0 REVERT JUMPDEST POP JUMPDEST PUSH0 DUP4 DUP2 SLOAD DUP2 LT PUSH2 0x9F5 JUMPI PUSH2 0x9F4 PUSH2 0x121F JUMP JUMPDEST JUMPDEST SWAP1 PUSH0 MSTORE PUSH1 0x20 PUSH0 KECCAK256 SWAP1 PUSH1 0x5 MUL ADD PUSH1 0x1 ADD PUSH0 SWAP1 SLOAD SWAP1 PUSH2 0x100 EXP SWAP1 DIV PUSH20 0xFFFFFFFFFFFFFFFFFFFFFFFFFFFFFFFFFFFFFFFF AND PUSH20 0xFFFFFFFFFFFFFFFFFFFFFFFFFFFFFFFFFFFFFFFF AND DUP3 PUSH20 0xFFFFFFFFFFFFFFFFFFFFFFFFFFFFFFFFFFFFFFFF AND SUB PUSH2 0xB79 JUMPI PUSH0 DUP4 DUP2 SLOAD DUP2 LT PUSH2 0xA69 JUMPI PUSH2 0xA68 PUSH2 0x121F JUMP JUMPDEST JUMPDEST SWAP1 PUSH0 MSTORE PUSH1 0x20 PUSH0 KECCAK256 SWAP1 PUSH1 0x5 MUL ADD PUSH1 0x4 ADD PUSH1 0x1 SWAP1 SLOAD SWAP1 PUSH2 0x100 EXP SWAP1 DIV PUSH1 0xFF AND PUSH2 0xAC5 JUMPI PUSH1 0x40 MLOAD PUSH32 0x8C379A000000000000000000000000000000000000000000000000000000000 DUP2 MSTORE PUSH1 0x4 ADD PUSH2 0xABC SWAP1 PUSH2 0x14D3 JUMP JUMPDEST PUSH1 0x40 MLOAD DUP1 SWAP2 SUB SWAP1 REVERT JUMPDEST PUSH0 DUP4 DUP2 SLOAD DUP2 LT PUSH2 0xAD8 JUMPI PUSH2 0xAD7 PUSH2 0x121F JUMP JUMPDEST JUMPDEST SWAP1 PUSH0 MSTORE PUSH1 0x20 PUSH0 KECCAK256 SWAP1 PUSH1 0x5 MUL ADD PUSH1 0x1 ADD PUSH0 SWAP1 SLOAD SWAP1 PUSH2 0x100 EXP SWAP1 DIV PUSH20 0xFFFFFFFFFFFFFFFFFFFFFFFFFFFFFFFFFFFFFFFF AND PUSH20 0xFFFFFFFFFFFFFFFFFFFFFFFFFFFFFFFFFFFFFFFF AND PUSH2 0x8FC PUSH1 0x2 PUSH0 DUP7 DUP2 SLOAD DUP2 LT PUSH2 0xB35 JUMPI PUSH2 0xB34 PUSH2 0x121F JUMP JUMPDEST JUMPDEST SWAP1 PUSH0 MSTORE PUSH1 0x20 PUSH0 KECCAK256 SWAP1 PUSH1 0x5 MUL ADD PUSH1 0x3 ADD SLOAD PUSH2 0xB4F SWAP2 SWAP1 PUSH2 0x1448 JUMP JUMPDEST SWAP1 DUP2 ISZERO MUL SWAP1 PUSH1 0x40 MLOAD PUSH0 PUSH1 0x40 MLOAD DUP1 DUP4 SUB DUP2 DUP6 DUP9 DUP9 CALL SWAP4 POP POP POP POP ISZERO DUP1 ISZERO PUSH2 0xB77 JUMPI RETURNDATASIZE PUSH0 DUP1 RETURNDATACOPY RETURNDATASIZE PUSH0 REVERT JUMPDEST POP JUMPDEST POP POP POP JUMP JUMPDEST DUP1 PUSH0 DUP2 DUP2 SLOAD DUP2 LT PUSH2 0xB92 JUMPI PUSH2 0xB91 PUSH2 0x121F JUMP JUMPDEST JUMPDEST SWAP1 PUSH0 MSTORE PUSH1 0x20 PUSH0 KECCAK256 SWAP1 PUSH1 0x5 MUL ADD PUSH0 ADD PUSH0 SWAP1 SLOAD SWAP1 PUSH2 0x100 EXP SWAP1 DIV PUSH20 0xFFFFFFFFFFFFFFFFFFFFFFFFFFFFFFFFFFFFFFFF AND PUSH20 0xFFFFFFFFFFFFFFFFFFFFFFFFFFFFFFFFFFFFFFFF AND CALLER PUSH20 0xFFFFFFFFFFFFFFFFFFFFFFFFFFFFFFFFFFFFFFFF AND EQ DUP1 PUSH2 0xC65 JUMPI POP PUSH0 DUP2 DUP2 SLOAD DUP2 LT PUSH2 0xC07 JUMPI PUSH2 0xC06 PUSH2 0x121F JUMP JUMPDEST JUMPDEST SWAP1 PUSH0 MSTORE PUSH1 0x20 PUSH0 KECCAK256 SWAP1 PUSH1 0x5 MUL ADD PUSH1 0x1 ADD PUSH0 SWAP1 SLOAD SWAP1 PUSH2 0x100 EXP SWAP1 DIV PUSH20 0xFFFFFFFFFFFFFFFFFFFFFFFFFFFFFFFFFFFFFFFF AND PUSH20 0xFFFFFFFFFFFFFFFFFFFFFFFFFFFFFFFFFFFFFFFF AND CALLER PUSH20 0xFFFFFFFFFFFFFFFFFFFFFFFFFFFFFFFFFFFFFFFF AND EQ JUMPDEST PUSH2 0xCA4 JUMPI PUSH1 0x40 MLOAD PUSH32 0x8C379A000000000000000000000000000000000000000000000000000000000 DUP2 MSTORE PUSH1 0x4 ADD PUSH2 0xC9B SWAP1 PUSH2 0x12CC JUMP JUMPDEST PUSH1 0x40 MLOAD DUP1 SWAP2 SUB SWAP1 REVERT JUMPDEST PUSH0 DUP3 DUP2 SLOAD DUP2 LT PUSH2 0xCB7 JUMPI PUSH2 0xCB6 PUSH2 0x121F JUMP JUMPDEST JUMPDEST SWAP1 PUSH0 MSTORE PUSH1 0x20 PUSH0 KECCAK256 SWAP1 PUSH1 0x5 MUL ADD PUSH0 ADD PUSH0 SWAP1 SLOAD SWAP1 PUSH2 0x100 EXP SWAP1 DIV PUSH20 0xFFFFFFFFFFFFFFFFFFFFFFFFFFFFFFFFFFFFFFFF AND PUSH20 0xFFFFFFFFFFFFFFFFFFFFFFFFFFFFFFFFFFFFFFFF AND CALLER PUSH20 0xFFFFFFFFFFFFFFFFFFFFFFFFFFFFFFFFFFFFFFFF AND SUB PUSH2 0xDB6 JUMPI PUSH0 DUP3 DUP2 SLOAD DUP2 LT PUSH2 0xD2A JUMPI PUSH2 0xD29 PUSH2 0x121F JUMP JUMPDEST JUMPDEST SWAP1 PUSH0 MSTORE PUSH1 0x20 PUSH0 KECCAK256 SWAP1 PUSH1 0x5 MUL ADD PUSH1 0x3 ADD SLOAD CALLVALUE EQ PUSH2 0xD7B JUMPI PUSH1 0x40 MLOAD PUSH32 0x8C379A000000000000000000000000000000000000000000000000000000000 DUP2 MSTORE PUSH1 0x4 ADD PUSH2 0xD72 SWAP1 PUSH2 0x153B JUMP JUMPDEST PUSH1 0x40 MLOAD DUP1 SWAP2 SUB SWAP1 REVERT JUMPDEST PUSH1 0x1 PUSH0 DUP4 DUP2 SLOAD DUP2 LT PUSH2 0xD90 JUMPI PUSH2 0xD8F PUSH2 0x121F JUMP JUMPDEST JUMPDEST SWAP1 PUSH0 MSTORE PUSH1 0x20 PUSH0 KECCAK256 SWAP1 PUSH1 0x5 MUL ADD PUSH1 0x4 ADD PUSH0 PUSH2 0x100 EXP DUP2 SLOAD DUP2 PUSH1 0xFF MUL NOT AND SWAP1 DUP4 ISZERO ISZERO MUL OR SWAP1 SSTORE POP JUMPDEST PUSH0 DUP3 DUP2 SLOAD DUP2 LT PUSH2 0xDC9 JUMPI PUSH2 0xDC8 PUSH2 0x121F JUMP JUMPDEST JUMPDEST SWAP1 PUSH0 MSTORE PUSH1 0x20 PUSH0 KECCAK256 SWAP1 PUSH1 0x5 MUL ADD PUSH1 0x1 ADD PUSH0 SWAP1 SLOAD SWAP1 PUSH2 0x100 EXP SWAP1 DIV PUSH20 0xFFFFFFFFFFFFFFFFFFFFFFFFFFFFFFFFFFFFFFFF AND PUSH20 0xFFFFFFFFFFFFFFFFFFFFFFFFFFFFFFFFFFFFFFFF AND CALLER PUSH20 0xFFFFFFFFFFFFFFFFFFFFFFFFFFFFFFFFFFFFFFFF AND SUB PUSH2 0xECA JUMPI PUSH0 DUP3 DUP2 SLOAD DUP2 LT PUSH2 0xE3D JUMPI PUSH2 0xE3C PUSH2 0x121F JUMP JUMPDEST JUMPDEST SWAP1 PUSH0 MSTORE PUSH1 0x20 PUSH0 KECCAK256 SWAP1 PUSH1 0x5 MUL ADD PUSH1 0x3 ADD SLOAD CALLVALUE EQ PUSH2 0xE8E JUMPI PUSH1 0x40 MLOAD PUSH32 0x8C379A000000000000000000000000000000000000000000000000000000000 DUP2 MSTORE PUSH1 0x4 ADD PUSH2 0xE85 SWAP1 PUSH2 0x153B JUMP JUMPDEST PUSH1 0x40 MLOAD DUP1 SWAP2 SUB SWAP1 REVERT JUMPDEST PUSH1 0x1 PUSH0 DUP4 DUP2 SLOAD DUP2 LT PUSH2 0xEA3 JUMPI PUSH2 0xEA2 PUSH2 0x121F JUMP JUMPDEST JUMPDEST SWAP1 PUSH0 MSTORE PUSH1 0x20 PUSH0 KECCAK256 SWAP1 PUSH1 0x5 MUL ADD PUSH1 0x4 ADD PUSH1 0x1 PUSH2 0x100 EXP DUP2 SLOAD DUP2 PUSH1 0xFF MUL NOT AND SWAP1 DUP4 ISZERO ISZERO MUL OR SWAP1 SSTORE POP JUMPDEST POP POP JUMP JUMPDEST PUSH0 DUP2 DUP2 SLOAD DUP2 LT PUSH2 0xEDC JUMPI PUSH0 DUP1 REVERT JUMPDEST SWAP1 PUSH0 MSTORE PUSH1 0x20 PUSH0 KECCAK256 SWAP1 PUSH1 0x5 MUL ADD PUSH0 SWAP2 POP SWAP1 POP DUP1 PUSH0 ADD PUSH0 SWAP1 SLOAD SWAP1 PUSH2 0x100 EXP SWAP1 DIV PUSH20 0xFFFFFFFFFFFFFFFFFFFFFFFFFFFFFFFFFFFFFFFF AND SWAP1 DUP1 PUSH1 0x1 ADD PUSH0 SWAP1 SLOAD SWAP1 PUSH2 0x100 EXP SWAP1 DIV PUSH20 0xFFFFFFFFFFFFFFFFFFFFFFFFFFFFFFFFFFFFFFFF AND SWAP1 DUP1 PUSH1 0x2 ADD PUSH0 SWAP1 SLOAD SWAP1 PUSH2 0x100 EXP SWAP1 DIV PUSH20 0xFFFFFFFFFFFFFFFFFFFFFFFFFFFFFFFFFFFFFFFF AND SWAP1 DUP1 PUSH1 0x3 ADD SLOAD SWAP1 DUP1 PUSH1 0x4 ADD PUSH0 SWAP1 SLOAD SWAP1 PUSH2 0x100 EXP SWAP1 DIV PUSH1 0xFF AND SWAP1 DUP1 PUSH1 0x4 ADD PUSH1 0x1 SWAP1 SLOAD SWAP1 PUSH2 0x100 EXP SWAP1 DIV PUSH1 0xFF AND SWAP1 POP DUP7 JUMP JUMPDEST PUSH0 DUP1 REVERT JUMPDEST PUSH0 PUSH20 0xFFFFFFFFFFFFFFFFFFFFFFFFFFFFFFFFFFFFFFFF DUP3 AND SWAP1 POP SWAP2 SWAP1 POP JUMP JUMPDEST PUSH0 PUSH2 0xFB7 DUP3 PUSH2 0xF8E JUMP JUMPDEST SWAP1 POP SWAP2 SWAP1 POP JUMP JUMPDEST PUSH2 0xFC7 DUP2 PUSH2 0xFAD JUMP JUMPDEST DUP2 EQ PUSH2 0xFD1 JUMPI PUSH0 DUP1 REVERT JUMPDEST POP JUMP JUMPDEST PUSH0 DUP2 CALLDATALOAD SWAP1 POP PUSH2 0xFE2 DUP2 PUSH2 0xFBE JUMP JUMPDEST SWAP3 SWAP2 POP POP JUMP JUMPDEST PUSH0 DUP2 SWAP1 POP SWAP2 SWAP1 POP JUMP JUMPDEST PUSH2 0xFFA DUP2 PUSH2 0xFE8 JUMP JUMPDEST DUP2 EQ PUSH2 0x1004 JUMPI PUSH0 DUP1 REVERT JUMPDEST POP JUMP JUMPDEST PUSH0 DUP2 CALLDATALOAD SWAP1 POP PUSH2 0x1015 DUP2 PUSH2 0xFF1 JUMP JUMPDEST SWAP3 SWAP2 POP POP JUMP JUMPDEST PUSH0 DUP1 PUSH0 PUSH1 0x60 DUP5 DUP7 SUB SLT ISZERO PUSH2 0x1032 JUMPI PUSH2 0x1031 PUSH2 0xF8A JUMP JUMPDEST JUMPDEST PUSH0 PUSH2 0x103F DUP7 DUP3 DUP8 ADD PUSH2 0xFD4 JUMP JUMPDEST SWAP4 POP POP PUSH1 0x20 PUSH2 0x1050 DUP7 DUP3 DUP8 ADD PUSH2 0xFD4 JUMP JUMPDEST SWAP3 POP POP PUSH1 0x40 PUSH2 0x1061 DUP7 DUP3 DUP8 ADD PUSH2 0x1007 JUMP JUMPDEST SWAP2 POP POP SWAP3 POP SWAP3 POP SWAP3 JUMP JUMPDEST PUSH2 0x1074 DUP2 PUSH2 0xFE8 JUMP JUMPDEST DUP3 MSTORE POP POP JUMP JUMPDEST PUSH0 PUSH1 0x20 DUP3 ADD SWAP1 POP PUSH2 0x108D PUSH0 DUP4 ADD DUP5 PUSH2 0x106B JUMP JUMPDEST SWAP3 SWAP2 POP POP JUMP JUMPDEST PUSH0 PUSH1 0x20 DUP3 DUP5 SUB SLT ISZERO PUSH2 0x10A8 JUMPI PUSH2 0x10A7 PUSH2 0xF8A JUMP JUMPDEST JUMPDEST PUSH0 PUSH2 0x10B5 DUP5 DUP3 DUP6 ADD PUSH2 0x1007 JUMP JUMPDEST SWAP2 POP POP SWAP3 SWAP2 POP POP JUMP JUMPDEST PUSH0 PUSH2 0x10C8 DUP3 PUSH2 0xF8E JUMP JUMPDEST SWAP1 POP SWAP2 SWAP1 POP JUMP JUMPDEST PUSH2 0x10D8 DUP2 PUSH2 0x10BE JUMP JUMPDEST DUP2 EQ PUSH2 0x10E2 JUMPI PUSH0 DUP1 REVERT JUMPDEST POP JUMP JUMPDEST PUSH0 DUP2 CALLDATALOAD SWAP1 POP PUSH2 0x10F3 DUP2 PUSH2 0x10CF JUMP JUMPDEST SWAP3 SWAP2 POP POP JUMP JUMPDEST PUSH0 DUP1 PUSH1 0x40 DUP4 DUP6 SUB SLT ISZERO PUSH2 0x110F JUMPI PUSH2 0x110E PUSH2 0xF8A JUMP JUMPDEST JUMPDEST PUSH0 PUSH2 0x111C DUP6 DUP3 DUP7 ADD PUSH2 0x1007 JUMP JUMPDEST SWAP3 POP POP PUSH1 0x20 PUSH2 0x112D DUP6 DUP3 DUP7 ADD PUSH2 0x10E5 JUMP JUMPDEST SWAP2 POP POP SWAP3 POP SWAP3 SWAP1 POP JUMP JUMPDEST PUSH2 0x1140 DUP2 PUSH2 0xFAD JUMP JUMPDEST DUP3 MSTORE POP POP JUMP JUMPDEST PUSH0 DUP2 ISZERO ISZERO SWAP1 POP SWAP2 SWAP1 POP JUMP JUMPDEST PUSH2 0x115A DUP2 PUSH2 0x1146 JUMP JUMPDEST DUP3 MSTORE POP POP JUMP JUMPDEST PUSH0 PUSH1 0xC0 DUP3 ADD SWAP1 POP PUSH2 0x1173 PUSH0 DUP4 ADD DUP10 PUSH2 0x1137 JUMP JUMPDEST PUSH2 0x1180 PUSH1 0x20 DUP4 ADD DUP9 PUSH2 0x1137 JUMP JUMPDEST PUSH2 0x118D PUSH1 0x40 DUP4 ADD DUP8 PUSH2 0x1137 JUMP JUMPDEST PUSH2 0x119A PUSH1 0x60 DUP4 ADD DUP7 PUSH2 0x106B JUMP JUMPDEST PUSH2 0x11A7 PUSH1 0x80 DUP4 ADD DUP6 PUSH2 0x1151 JUMP JUMPDEST PUSH2 0x11B4 PUSH1 0xA0 DUP4 ADD DUP5 PUSH2 0x1151 JUMP JUMPDEST SWAP8 SWAP7 POP POP POP POP POP POP POP JUMP JUMPDEST PUSH32 0x4E487B7100000000000000000000000000000000000000000000000000000000 PUSH0 MSTORE PUSH1 0x11 PUSH1 0x4 MSTORE PUSH1 0x24 PUSH0 REVERT JUMPDEST PUSH0 PUSH2 0x11F6 DUP3 PUSH2 0xFE8 JUMP JUMPDEST SWAP2 POP PUSH2 0x1201 DUP4 PUSH2 0xFE8 JUMP JUMPDEST SWAP3 POP DUP3 DUP3 SUB SWAP1 POP DUP2 DUP2 GT ISZERO PUSH2 0x1219 JUMPI PUSH2 0x1218 PUSH2 0x11BF JUMP JUMPDEST JUMPDEST SWAP3 SWAP2 POP POP JUMP JUMPDEST PUSH32 0x4E487B7100000000000000000000000000000000000000000000000000000000 PUSH0 MSTORE PUSH1 0x32 PUSH1 0x4 MSTORE PUSH1 0x24 PUSH0 REVERT JUMPDEST PUSH0 DUP3 DUP3 MSTORE PUSH1 0x20 DUP3 ADD SWAP1 POP SWAP3 SWAP2 POP POP JUMP JUMPDEST PUSH32 0x546865206465706F7369742069732061636365707461626C65206279206F6E6C PUSH0 DUP3 ADD MSTORE PUSH32 0x792074686520706C61796572732E000000000000000000000000000000000000 PUSH1 0x20 DUP3 ADD MSTORE POP JUMP JUMPDEST PUSH0 PUSH2 0x12B6 PUSH1 0x2E DUP4 PUSH2 0x124C JUMP JUMPDEST SWAP2 POP PUSH2 0x12C1 DUP3 PUSH2 0x125C JUMP JUMPDEST PUSH1 0x40 DUP3 ADD SWAP1 POP SWAP2 SWAP1 POP JUMP JUMPDEST PUSH0 PUSH1 0x20 DUP3 ADD SWAP1 POP DUP2 DUP2 SUB PUSH0 DUP4 ADD MSTORE PUSH2 0x12E3 DUP2 PUSH2 0x12AA JUMP JUMPDEST SWAP1 POP SWAP2 SWAP1 POP JUMP JUMPDEST PUSH32 0x596F752068617665206E6F742070616964207965742E00000000000000000000 PUSH0 DUP3 ADD MSTORE POP JUMP JUMPDEST PUSH0 PUSH2 0x131E PUSH1 0x16 DUP4 PUSH2 0x124C JUMP JUMPDEST SWAP2 POP PUSH2 0x1329 DUP3 PUSH2 0x12EA JUMP JUMPDEST PUSH1 0x20 DUP3 ADD SWAP1 POP SWAP2 SWAP1 POP JUMP JUMPDEST PUSH0 PUSH1 0x20 DUP3 ADD SWAP1 POP DUP2 DUP2 SUB PUSH0 DUP4 ADD MSTORE PUSH2 0x134B DUP2 PUSH2 0x1312 JUMP JUMPDEST SWAP1 POP SWAP2 SWAP1 POP JUMP JUMPDEST PUSH32 0x546869732063616E206F6E6C7920626520646F6E6520627920746865204F6666 PUSH0 DUP3 ADD MSTORE PUSH32 0x696369616C2E0000000000000000000000000000000000000000000000000000 PUSH1 0x20 DUP3 ADD MSTORE POP JUMP JUMPDEST PUSH0 PUSH2 0x13AC PUSH1 0x26 DUP4 PUSH2 0x124C JUMP JUMPDEST SWAP2 POP PUSH2 0x13B7 DUP3 PUSH2 0x1352 JUMP JUMPDEST PUSH1 0x40 DUP3 ADD SWAP1 POP SWAP2 SWAP1 POP JUMP JUMPDEST PUSH0 PUSH1 0x20 DUP3 ADD SWAP1 POP DUP2 DUP2 SUB PUSH0 DUP4 ADD MSTORE PUSH2 0x13D9 DUP2 PUSH2 0x13A0 JUMP JUMPDEST SWAP1 POP SWAP2 SWAP1 POP JUMP JUMPDEST PUSH32 0x506C617965723120686173206E6F742070616964207965742E00000000000000 PUSH0 DUP3 ADD MSTORE POP JUMP JUMPDEST PUSH0 PUSH2 0x1414 PUSH1 0x19 DUP4 PUSH2 0x124C JUMP JUMPDEST SWAP2 POP PUSH2 0x141F DUP3 PUSH2 0x13E0 JUMP JUMPDEST PUSH1 0x20 DUP3 ADD SWAP1 POP SWAP2 SWAP1 POP JUMP JUMPDEST PUSH0 PUSH1 0x20 DUP3 ADD SWAP1 POP DUP2 DUP2 SUB PUSH0 DUP4 ADD MSTORE PUSH2 0x1441 DUP2 PUSH2 0x1408 JUMP JUMPDEST SWAP1 POP SWAP2 SWAP1 POP JUMP JUMPDEST PUSH0 PUSH2 0x1452 DUP3 PUSH2 0xFE8 JUMP JUMPDEST SWAP2 POP PUSH2 0x145D DUP4 PUSH2 0xFE8 JUMP JUMPDEST SWAP3 POP DUP3 DUP3 MUL PUSH2 0x146B DUP2 PUSH2 0xFE8 JUMP JUMPDEST SWAP2 POP DUP3 DUP3 DIV DUP5 EQ DUP4 ISZERO OR PUSH2 0x1482 JUMPI PUSH2 0x1481 PUSH2 0x11BF JUMP JUMPDEST JUMPDEST POP SWAP3 SWAP2 POP POP JUMP JUMPDEST PUSH32 0x506C617965723220686173206E6F742070616964207965742E00000000000000 PUSH0 DUP3 ADD MSTORE POP JUMP JUMPDEST PUSH0 PUSH2 0x14BD PUSH1 0x19 DUP4 PUSH2 0x124C JUMP JUMPDEST SWAP2 POP PUSH2 0x14C8 DUP3 PUSH2 0x1489 JUMP JUMPDEST PUSH1 0x20 DUP3 ADD SWAP1 POP SWAP2 SWAP1 POP JUMP JUMPDEST PUSH0 PUSH1 0x20 DUP3 ADD SWAP1 POP DUP2 DUP2 SUB PUSH0 DUP4 ADD MSTORE PUSH2 0x14EA DUP2 PUSH2 0x14B1 JUMP JUMPDEST SWAP1 POP SWAP2 SWAP1 POP JUMP JUMPDEST PUSH32 0x416D6F756E74206973206E6F742061732070657220746865207465726D732E00 PUSH0 DUP3 ADD MSTORE POP JUMP JUMPDEST PUSH0 PUSH2 0x1525 PUSH1 0x1F DUP4 PUSH2 0x124C JUMP JUMPDEST SWAP2 POP PUSH2 0x1530 DUP3 PUSH2 0x14F1 JUMP JUMPDEST PUSH1 0x20 DUP3 ADD SWAP1 POP SWAP2 SWAP1 POP JUMP JUMPDEST PUSH0 PUSH1 0x20 DUP3 ADD SWAP1 POP DUP2 DUP2 SUB PUSH0 DUP4 ADD MSTORE PUSH2 0x1552 DUP2 PUSH2 0x1519 JUMP JUMPDEST SWAP1 POP SWAP2 SWAP1 POP JUMP INVALID LOG2 PUSH5 0x6970667358 0x22 SLT KECCAK256 MOD 0xA8 STOP 0xC5 0xE0 0xED LOG0 0xB1 0xDB PUSH19 0x232821AE9D2E6E8B8CCADA75EDBDF1E6E0E269 CALLDATACOPY XOR 0xDC PUSH5 0x736F6C6343 STOP ADDMOD BYTE STOP CALLER "
				},
				"gasEstimates": {
					"creation": {
						"codeDepositCost": "1103800",
						"executionCost": "1145",
						"totalCost": "1104945"
					},
					"external": {
						"agreements(uint256)": "infinite",
						"complete(uint256,address)": "infinite",
						"deposit(uint256)": "79484",
						"new_agreement(address,address,uint256)": "infinite",
						"refund(uint256)": "infinite"
					}
				},
				"methodIdentifiers": {
					"agreements(uint256)": "bd14de96",
					"complete(uint256,address)": "768038c3",
					"deposit(uint256)": "b6b55f25",
					"new_agreement(address,address,uint256)": "13c7f466",
					"refund(uint256)": "278ecde1"
				}
			},
			"storageLayout": {
				"storage": [
					{
						"astId": 18,
						"contract": "Escrow.sol:Escrow",
						"label": "agreements",
						"offset": 0,
						"slot": "0",
						"type": "t_array(t_struct(Agreement)14_storage)dyn_storage"
					}
				],
				"types": {
					"t_address": {
						"encoding": "inplace",
						"label": "address",
						"numberOfBytes": "20"
					},
					"t_array(t_struct(Agreement)14_storage)dyn_storage": {
						"base": "t_struct(Agreement)14_storage",
						"encoding": "dynamic_array",
						"label": "struct Escrow.Agreement[]",
						"numberOfBytes": "32"
					},
					"t_bool": {
						"encoding": "inplace",
						"label": "bool",
						"numberOfBytes": "1"
					},
					"t_struct(Agreement)14_storage": {
						"encoding": "inplace",
						"label": "struct Escrow.Agreement",
						"members": [
							{
								"astId": 3,
								"contract": "Escrow.sol:Escrow",
								"label": "player1",
								"offset": 0,
								"slot": "0",
								"type": "t_address"
							},
							{
								"astId": 5,
								"contract": "Escrow.sol:Escrow",
								"label": "player2",
								"offset": 0,
								"slot": "1",
								"type": "t_address"
							},
							{
								"astId": 7,
								"contract": "Escrow.sol:Escrow",
								"label": "controller",
								"offset": 0,
								"slot": "2",
								"type": "t_address"
							},
							{
								"astId": 9,
								"contract": "Escrow.sol:Escrow",
								"label": "amount",
								"offset": 0,
								"slot": "3",
								"type": "t_uint256"
							},
							{
								"astId": 11,
								"contract": "Escrow.sol:Escrow",
								"label": "player1Paid",
								"offset": 0,
								"slot": "4",
								"type": "t_bool"
							},
							{
								"astId": 13,
								"contract": "Escrow.sol:Escrow",
								"label": "player2Paid",
								"offset": 1,
								"slot": "4",
								"type": "t_bool"
							}
						],
						"numberOfBytes": "160"
					},
					"t_uint256": {
						"encoding": "inplace",
						"label": "uint256",
						"numberOfBytes": "32"
					}
				}
			},
			"userdoc": {
				"kind": "user",
				"methods": {},
				"version": 1
			}
		}
	}
}